{
  "_format": "hh-sol-artifact-1",
  "contractName": "Caller",
  "sourceName": "contracts/CallingContract.sol",
  "abi": [
    {
      "inputs": [
        {
          "internalType": "contract Callee",
          "name": "_callee",
          "type": "address"
        },
        {
          "internalType": "uint256",
          "name": "_x",
          "type": "uint256"
        }
      ],
      "name": "setX",
      "outputs": [],
      "stateMutability": "nonpayable",
      "type": "function"
    },
    {
      "inputs": [
        {
          "internalType": "address",
          "name": "_addr",
          "type": "address"
        },
        {
          "internalType": "uint256",
          "name": "_x",
          "type": "uint256"
        }
      ],
      "name": "setXFromAddress",
      "outputs": [],
      "stateMutability": "nonpayable",
      "type": "function"
    },
    {
      "inputs": [
        {
          "internalType": "contract Callee",
          "name": "_callee",
          "type": "address"
        },
        {
          "internalType": "uint256",
          "name": "_x",
          "type": "uint256"
        }
      ],
      "name": "setXandSendEther",
      "outputs": [],
      "stateMutability": "payable",
      "type": "function"
    }
  ],
  "bytecode": "0x608060405234801561001057600080fd5b50610475806100206000396000f3fe6080604052600436106100345760003560e01c80634a2ad99f14610039578063cb58703914610062578063d44abc421461008b575b600080fd5b34801561004557600080fd5b50610060600480360381019061005b91906102e7565b6100a7565b005b34801561006e57600080fd5b5061008960048036038101906100849190610353565b61012c565b005b6100a560048036038101906100a091906102e7565b6101b3565b005b60008273ffffffffffffffffffffffffffffffffffffffff16634018d9aa836040518263ffffffff1660e01b81526004016100e291906103a2565b6020604051808303816000875af1158015610101573d6000803e3d6000fd5b505050506040513d601f19601f8201168201806040525081019061012591906103d2565b9050505050565b60008290508073ffffffffffffffffffffffffffffffffffffffff16634018d9aa836040518263ffffffff1660e01b815260040161016a91906103a2565b6020604051808303816000875af1158015610189573d6000803e3d6000fd5b505050506040513d601f19601f820116820180604052508101906101ad91906103d2565b50505050565b6000808373ffffffffffffffffffffffffffffffffffffffff1663cdc2307634856040518363ffffffff1660e01b81526004016101f091906103a2565b604080518083038185885af115801561020d573d6000803e3d6000fd5b50505050506040513d601f19601f8201168201806040525081019061023291906103ff565b9150915050505050565b600080fd5b600073ffffffffffffffffffffffffffffffffffffffff82169050919050565b600061026c82610241565b9050919050565b600061027e82610261565b9050919050565b61028e81610273565b811461029957600080fd5b50565b6000813590506102ab81610285565b92915050565b6000819050919050565b6102c4816102b1565b81146102cf57600080fd5b50565b6000813590506102e1816102bb565b92915050565b600080604083850312156102fe576102fd61023c565b5b600061030c8582860161029c565b925050602061031d858286016102d2565b9150509250929050565b61033081610261565b811461033b57600080fd5b50565b60008135905061034d81610327565b92915050565b6000806040838503121561036a5761036961023c565b5b60006103788582860161033e565b9250506020610389858286016102d2565b9150509250929050565b61039c816102b1565b82525050565b60006020820190506103b76000830184610393565b92915050565b6000815190506103cc816102bb565b92915050565b6000602082840312156103e8576103e761023c565b5b60006103f6848285016103bd565b91505092915050565b600080604083850312156104165761041561023c565b5b6000610424858286016103bd565b9250506020610435858286016103bd565b915050925092905056fea264697066735822122081a6e0465f5e1b42b6de7724f12cf3e76d24203f4e87153fe897c8367907768d64736f6c634300080d0033",
  "linkReferences": {},
  "deployedLinkReferences": {}
}