{
  "_format": "hh-sol-artifact-1",
  "contractName": "Enum",
  "sourceName": "contracts/Enum.sol",
  "abi": [
    {
      "inputs": [],
      "name": "status",
      "outputs": [
        {
          "internalType": "enum Status",
          "name": "",
          "type": "uint8"
        }
      ],
      "stateMutability": "view",
      "type": "function"
    }
  ],
  "bytecode": "0x608060405234801561001057600080fd5b50610115806100206000396000f3fe6080604052348015600f57600080fd5b506004361060285760003560e01c8063200d2ed214602d575b600080fd5b60336047565b604051603e919060c6565b60405180910390f35b60008054906101000a900460ff1681565b7f4e487b7100000000000000000000000000000000000000000000000000000000600052602160045260246000fd5b6005811060955760946058565b5b50565b600081905060a4826087565b919050565b600060b2826098565b9050919050565b60c08160a9565b82525050565b600060208201905060d9600083018460b9565b9291505056fea26469706673582212201ab3f85b8e17926c60765989b6609f73cc8681af2ec3b750ddb4688b34f7b52664736f6c634300080d0033",
  "linkReferences": {},
  "deployedLinkReferences": {}
}