{
  "_format": "hh-sol-artifact-1",
  "contractName": "Car",
  "sourceName": "contracts/NewContract.sol",
  "abi": [
    {
      "inputs": [
        {
          "internalType": "address",
          "name": "_owner",
          "type": "address"
        },
        {
          "internalType": "string",
          "name": "_model",
          "type": "string"
        }
      ],
      "stateMutability": "payable",
      "type": "constructor"
    },
    {
      "inputs": [],
      "name": "carAddr",
      "outputs": [
        {
          "internalType": "address",
          "name": "",
          "type": "address"
        }
      ],
      "stateMutability": "view",
      "type": "function"
    },
    {
      "inputs": [],
      "name": "model",
      "outputs": [
        {
          "internalType": "string",
          "name": "",
          "type": "string"
        }
      ],
      "stateMutability": "view",
      "type": "function"
    },
    {
      "inputs": [],
      "name": "owner",
      "outputs": [
        {
          "internalType": "address",
          "name": "",
          "type": "address"
        }
      ],
      "stateMutability": "view",
      "type": "function"
    }
  ],
  "bytecode": "0x608060405260405161073338038061073383398181016040528101906100259190610343565b816000806101000a81548173ffffffffffffffffffffffffffffffffffffffff021916908373ffffffffffffffffffffffffffffffffffffffff160217905550806001908051906020019061007b9291906100c4565b5030600260006101000a81548173ffffffffffffffffffffffffffffffffffffffff021916908373ffffffffffffffffffffffffffffffffffffffff16021790555050506103ff565b8280546100d0906103ce565b90600052602060002090601f0160209004810192826100f25760008555610139565b82601f1061010b57805160ff1916838001178555610139565b82800160010185558215610139579182015b8281111561013857825182559160200191906001019061011d565b5b509050610146919061014a565b5090565b5b8082111561016357600081600090555060010161014b565b5090565b6000604051905090565b600080fd5b600080fd5b600073ffffffffffffffffffffffffffffffffffffffff82169050919050565b60006101a68261017b565b9050919050565b6101b68161019b565b81146101c157600080fd5b50565b6000815190506101d3816101ad565b92915050565b600080fd5b600080fd5b6000601f19601f8301169050919050565b7f4e487b7100000000000000000000000000000000000000000000000000000000600052604160045260246000fd5b61022c826101e3565b810181811067ffffffffffffffff8211171561024b5761024a6101f4565b5b80604052505050565b600061025e610167565b905061026a8282610223565b919050565b600067ffffffffffffffff82111561028a576102896101f4565b5b610293826101e3565b9050602081019050919050565b60005b838110156102be5780820151818401526020810190506102a3565b838111156102cd576000848401525b50505050565b60006102e66102e18461026f565b610254565b905082815260208101848484011115610302576103016101de565b5b61030d8482856102a0565b509392505050565b600082601f83011261032a576103296101d9565b5b815161033a8482602086016102d3565b91505092915050565b6000806040838503121561035a57610359610171565b5b6000610368858286016101c4565b925050602083015167ffffffffffffffff81111561038957610388610176565b5b61039585828601610315565b9150509250929050565b7f4e487b7100000000000000000000000000000000000000000000000000000000600052602260045260246000fd5b600060028204905060018216806103e657607f821691505b6020821081036103f9576103f861039f565b5b50919050565b6103258061040e6000396000f3fe608060405234801561001057600080fd5b50600436106100415760003560e01c80630ad9d05214610046578063514fa676146100645780638da5cb5b14610082575b600080fd5b61004e6100a0565b60405161005b9190610211565b60405180910390f35b61006c61012e565b6040516100799190610274565b60405180910390f35b61008a610154565b6040516100979190610274565b60405180910390f35b600180546100ad906102be565b80601f01602080910402602001604051908101604052809291908181526020018280546100d9906102be565b80156101265780601f106100fb57610100808354040283529160200191610126565b820191906000526020600020905b81548152906001019060200180831161010957829003601f168201915b505050505081565b600260009054906101000a900473ffffffffffffffffffffffffffffffffffffffff1681565b60008054906101000a900473ffffffffffffffffffffffffffffffffffffffff1681565b600081519050919050565b600082825260208201905092915050565b60005b838110156101b2578082015181840152602081019050610197565b838111156101c1576000848401525b50505050565b6000601f19601f8301169050919050565b60006101e382610178565b6101ed8185610183565b93506101fd818560208601610194565b610206816101c7565b840191505092915050565b6000602082019050818103600083015261022b81846101d8565b905092915050565b600073ffffffffffffffffffffffffffffffffffffffff82169050919050565b600061025e82610233565b9050919050565b61026e81610253565b82525050565b60006020820190506102896000830184610265565b92915050565b7f4e487b7100000000000000000000000000000000000000000000000000000000600052602260045260246000fd5b600060028204905060018216806102d657607f821691505b6020821081036102e9576102e861028f565b5b5091905056fea2646970667358221220f5e484dd79a0deaf5aaa0088f3027c168abc1efd8a862695ad5d1b534457b32864736f6c634300080d0033",
  "linkReferences": {},
  "deployedLinkReferences": {}
}