{
  "_format": "hh-sol-artifact-1",
  "contractName": "CarFactory",
  "sourceName": "contracts/NewContract.sol",
  "abi": [
    {
      "inputs": [
        {
          "internalType": "uint256",
          "name": "",
          "type": "uint256"
        }
      ],
      "name": "cars",
      "outputs": [
        {
          "internalType": "contract Car",
          "name": "",
          "type": "address"
        }
      ],
      "stateMutability": "view",
      "type": "function"
    },
    {
      "inputs": [
        {
          "internalType": "address",
          "name": "_owner",
          "type": "address"
        },
        {
          "internalType": "string",
          "name": "_model",
          "type": "string"
        }
      ],
      "name": "create",
      "outputs": [],
      "stateMutability": "nonpayable",
      "type": "function"
    },
    {
      "inputs": [
        {
          "internalType": "address",
          "name": "_owner",
          "type": "address"
        },
        {
          "internalType": "string",
          "name": "_model",
          "type": "string"
        },
        {
          "internalType": "bytes32",
          "name": "_salt",
          "type": "bytes32"
        }
      ],
      "name": "create2",
      "outputs": [],
      "stateMutability": "nonpayable",
      "type": "function"
    },
    {
      "inputs": [
        {
          "internalType": "address",
          "name": "_owner",
          "type": "address"
        },
        {
          "internalType": "string",
          "name": "_model",
          "type": "string"
        },
        {
          "internalType": "bytes32",
          "name": "_salt",
          "type": "bytes32"
        }
      ],
      "name": "create2AndSendEther",
      "outputs": [],
      "stateMutability": "payable",
      "type": "function"
    },
    {
      "inputs": [
        {
          "internalType": "address",
          "name": "_owner",
          "type": "address"
        },
        {
          "internalType": "string",
          "name": "_model",
          "type": "string"
        }
      ],
      "name": "createAndSendEther",
      "outputs": [],
      "stateMutability": "payable",
      "type": "function"
    },
    {
      "inputs": [
        {
          "internalType": "bytes",
          "name": "bytecode",
          "type": "bytes"
        },
        {
          "internalType": "uint256",
          "name": "_salt",
          "type": "uint256"
        }
      ],
      "name": "getAddress",
      "outputs": [
        {
          "internalType": "address",
          "name": "",
          "type": "address"
        }
      ],
      "stateMutability": "view",
      "type": "function"
    },
    {
      "inputs": [
        {
          "internalType": "address",
          "name": "_owner",
          "type": "address"
        }
      ],
      "name": "getByteCode",
      "outputs": [
        {
          "internalType": "bytes",
          "name": "",
          "type": "bytes"
        }
      ],
      "stateMutability": "pure",
      "type": "function"
    },
    {
      "inputs": [
        {
          "internalType": "uint256",
          "name": "_index",
          "type": "uint256"
        }
      ],
      "name": "getCar",
      "outputs": [
        {
          "internalType": "address",
          "name": "owner",
          "type": "address"
        },
        {
          "internalType": "string",
          "name": "model",
          "type": "string"
        },
        {
          "internalType": "address",
          "name": "carAddr",
          "type": "address"
        },
        {
          "internalType": "uint256",
          "name": "balance",
          "type": "uint256"
        }
      ],
      "stateMutability": "view",
      "type": "function"
    }
  ],
  "bytecode": "0x608060405234801561001057600080fd5b50611937806100206000396000f3fe608060405260043610620000865760003560e01c8063a15ab08d1162000055578063a15ab08d146200017a578063ace276ee14620001a8578063c33cd61514620001d6578063f7746e3614620001f65762000086565b806324790744146200008b5780633d4b301514620000cf5780635e8be19014620000ef57806394ca2cb51462000136575b600080fd5b3480156200009857600080fd5b50620000b76004803603810190620000b1919062000842565b6200023a565b604051620000c6919062000918565b60405180910390f35b620000ed6004803603810190620000e7919062000ac8565b620002b3565b005b348015620000fc57600080fd5b506200011b600480360381019062000115919062000b7e565b62000363565b6040516200012d949392919062000c2f565b60405180910390f35b3480156200014357600080fd5b506200016260048036038101906200015c919062000d37565b62000532565b60405162000171919062000d9d565b60405180910390f35b3480156200018757600080fd5b50620001a66004803603810190620001a0919062000dba565b6200057e565b005b348015620001b557600080fd5b50620001d46004803603810190620001ce919062000ac8565b62000625565b005b620001f46004803603810190620001ee919062000dba565b620006d2565b005b3480156200020357600080fd5b506200022260048036038101906200021c919062000b7e565b6200077b565b60405162000231919062000e8b565b60405180910390f35b60606000604051806020016200025090620007bb565b6020820181038252601f19601f82011660405250905080836040516020016200027a919062000d9d565b6040516020818303038152906040526040516020016200029c92919062000eea565b604051602081830303815290604052915050919050565b60003482908585604051620002c890620007bb565b620002d592919062000f12565b82906040518091039083f59050905080158015620002f7573d6000803e3d6000fd5b5090506000819080600181540180825580915050600190039060005260206000200160009091909190916101000a81548173ffffffffffffffffffffffffffffffffffffffff021916908373ffffffffffffffffffffffffffffffffffffffff16021790555050505050565b60006060600080600080868154811062000382576200038162000f46565b5b9060005260206000200160009054906101000a900473ffffffffffffffffffffffffffffffffffffffff1690508073ffffffffffffffffffffffffffffffffffffffff16638da5cb5b6040518163ffffffff1660e01b8152600401602060405180830381865afa158015620003fb573d6000803e3d6000fd5b505050506040513d601f19601f8201168201806040525081019062000421919062000f8c565b8173ffffffffffffffffffffffffffffffffffffffff16630ad9d0526040518163ffffffff1660e01b8152600401600060405180830381865afa1580156200046d573d6000803e3d6000fd5b505050506040513d6000823e3d601f19601f820116820180604052508101906200049891906200103c565b8273ffffffffffffffffffffffffffffffffffffffff1663514fa6766040518163ffffffff1660e01b8152600401602060405180830381865afa158015620004e4573d6000803e3d6000fd5b505050506040513d601f19601f820116820180604052508101906200050a919062000f8c565b8373ffffffffffffffffffffffffffffffffffffffff16319450945094509450509193509193565b60008060ff60f81b3084868051906020012060405160200162000559949392919062001178565b6040516020818303038152906040528051906020012090508060001c91505092915050565b600082826040516200059090620007bb565b6200059d92919062000f12565b604051809103906000f080158015620005ba573d6000803e3d6000fd5b5090506000819080600181540180825580915050600190039060005260206000200160009091909190916101000a81548173ffffffffffffffffffffffffffffffffffffffff021916908373ffffffffffffffffffffffffffffffffffffffff160217905550505050565b60008184846040516200063890620007bb565b6200064592919062000f12565b8190604051809103906000f590508015801562000666573d6000803e3d6000fd5b5090506000819080600181540180825580915050600190039060005260206000200160009091909190916101000a81548173ffffffffffffffffffffffffffffffffffffffff021916908373ffffffffffffffffffffffffffffffffffffffff16021790555050505050565b6000348383604051620006e590620007bb565b620006f292919062000f12565b6040518091039082f090508015801562000710573d6000803e3d6000fd5b5090506000819080600181540180825580915050600190039060005260206000200160009091909190916101000a81548173ffffffffffffffffffffffffffffffffffffffff021916908373ffffffffffffffffffffffffffffffffffffffff160217905550505050565b600081815481106200078c57600080fd5b906000526020600020016000915054906101000a900473ffffffffffffffffffffffffffffffffffffffff1681565b61073380620011cf83390190565b6000604051905090565b600080fd5b600080fd5b600073ffffffffffffffffffffffffffffffffffffffff82169050919050565b60006200080a82620007dd565b9050919050565b6200081c81620007fd565b81146200082857600080fd5b50565b6000813590506200083c8162000811565b92915050565b6000602082840312156200085b576200085a620007d3565b5b60006200086b848285016200082b565b91505092915050565b600081519050919050565b600082825260208201905092915050565b60005b83811015620008b057808201518184015260208101905062000893565b83811115620008c0576000848401525b50505050565b6000601f19601f8301169050919050565b6000620008e48262000874565b620008f081856200087f565b93506200090281856020860162000890565b6200090d81620008c6565b840191505092915050565b60006020820190508181036000830152620009348184620008d7565b905092915050565b600080fd5b600080fd5b7f4e487b7100000000000000000000000000000000000000000000000000000000600052604160045260246000fd5b6200098082620008c6565b810181811067ffffffffffffffff82111715620009a257620009a162000946565b5b80604052505050565b6000620009b7620007c9565b9050620009c5828262000975565b919050565b600067ffffffffffffffff821115620009e857620009e762000946565b5b620009f382620008c6565b9050602081019050919050565b82818337600083830152505050565b600062000a2662000a2084620009ca565b620009ab565b90508281526020810184848401111562000a455762000a4462000941565b5b62000a5284828562000a00565b509392505050565b600082601f83011262000a725762000a716200093c565b5b813562000a8484826020860162000a0f565b91505092915050565b6000819050919050565b62000aa28162000a8d565b811462000aae57600080fd5b50565b60008135905062000ac28162000a97565b92915050565b60008060006060848603121562000ae45762000ae3620007d3565b5b600062000af4868287016200082b565b935050602084013567ffffffffffffffff81111562000b185762000b17620007d8565b5b62000b268682870162000a5a565b925050604062000b398682870162000ab1565b9150509250925092565b6000819050919050565b62000b588162000b43565b811462000b6457600080fd5b50565b60008135905062000b788162000b4d565b92915050565b60006020828403121562000b975762000b96620007d3565b5b600062000ba78482850162000b67565b91505092915050565b62000bbb81620007fd565b82525050565b600081519050919050565b600082825260208201905092915050565b600062000bea8262000bc1565b62000bf6818562000bcc565b935062000c0881856020860162000890565b62000c1381620008c6565b840191505092915050565b62000c298162000b43565b82525050565b600060808201905062000c46600083018762000bb0565b818103602083015262000c5a818662000bdd565b905062000c6b604083018562000bb0565b62000c7a606083018462000c1e565b95945050505050565b600067ffffffffffffffff82111562000ca15762000ca062000946565b5b62000cac82620008c6565b9050602081019050919050565b600062000cd062000cca8462000c83565b620009ab565b90508281526020810184848401111562000cef5762000cee62000941565b5b62000cfc84828562000a00565b509392505050565b600082601f83011262000d1c5762000d1b6200093c565b5b813562000d2e84826020860162000cb9565b91505092915050565b6000806040838503121562000d515762000d50620007d3565b5b600083013567ffffffffffffffff81111562000d725762000d71620007d8565b5b62000d808582860162000d04565b925050602062000d938582860162000b67565b9150509250929050565b600060208201905062000db4600083018462000bb0565b92915050565b6000806040838503121562000dd45762000dd3620007d3565b5b600062000de4858286016200082b565b925050602083013567ffffffffffffffff81111562000e085762000e07620007d8565b5b62000e168582860162000a5a565b9150509250929050565b6000819050919050565b600062000e4b62000e4562000e3f84620007dd565b62000e20565b620007dd565b9050919050565b600062000e5f8262000e2a565b9050919050565b600062000e738262000e52565b9050919050565b62000e858162000e66565b82525050565b600060208201905062000ea2600083018462000e7a565b92915050565b600081905092915050565b600062000ec08262000874565b62000ecc818562000ea8565b935062000ede81856020860162000890565b80840191505092915050565b600062000ef8828562000eb3565b915062000f06828462000eb3565b91508190509392505050565b600060408201905062000f29600083018562000bb0565b818103602083015262000f3d818462000bdd565b90509392505050565b7f4e487b7100000000000000000000000000000000000000000000000000000000600052603260045260246000fd5b60008151905062000f868162000811565b92915050565b60006020828403121562000fa55762000fa4620007d3565b5b600062000fb58482850162000f75565b91505092915050565b600062000fd562000fcf84620009ca565b620009ab565b90508281526020810184848401111562000ff45762000ff362000941565b5b6200100184828562000890565b509392505050565b600082601f8301126200102157620010206200093c565b5b81516200103384826020860162000fbe565b91505092915050565b600060208284031215620010555762001054620007d3565b5b600082015167ffffffffffffffff811115620010765762001075620007d8565b5b620010848482850162001009565b91505092915050565b60007fff0000000000000000000000000000000000000000000000000000000000000082169050919050565b6000819050919050565b620010d8620010d2826200108d565b620010b9565b82525050565b60008160601b9050919050565b6000620010f882620010de565b9050919050565b60006200110c82620010eb565b9050919050565b620011286200112282620007fd565b620010ff565b82525050565b6000819050919050565b6200114d620011478262000b43565b6200112e565b82525050565b6000819050919050565b620011726200116c8262000a8d565b62001153565b82525050565b6000620011868287620010c3565b60018201915062001198828662001113565b601482019150620011aa828562001138565b602082019150620011bc82846200115d565b6020820191508190509594505050505056fe608060405260405161073338038061073383398181016040528101906100259190610343565b816000806101000a81548173ffffffffffffffffffffffffffffffffffffffff021916908373ffffffffffffffffffffffffffffffffffffffff160217905550806001908051906020019061007b9291906100c4565b5030600260006101000a81548173ffffffffffffffffffffffffffffffffffffffff021916908373ffffffffffffffffffffffffffffffffffffffff16021790555050506103ff565b8280546100d0906103ce565b90600052602060002090601f0160209004810192826100f25760008555610139565b82601f1061010b57805160ff1916838001178555610139565b82800160010185558215610139579182015b8281111561013857825182559160200191906001019061011d565b5b509050610146919061014a565b5090565b5b8082111561016357600081600090555060010161014b565b5090565b6000604051905090565b600080fd5b600080fd5b600073ffffffffffffffffffffffffffffffffffffffff82169050919050565b60006101a68261017b565b9050919050565b6101b68161019b565b81146101c157600080fd5b50565b6000815190506101d3816101ad565b92915050565b600080fd5b600080fd5b6000601f19601f8301169050919050565b7f4e487b7100000000000000000000000000000000000000000000000000000000600052604160045260246000fd5b61022c826101e3565b810181811067ffffffffffffffff8211171561024b5761024a6101f4565b5b80604052505050565b600061025e610167565b905061026a8282610223565b919050565b600067ffffffffffffffff82111561028a576102896101f4565b5b610293826101e3565b9050602081019050919050565b60005b838110156102be5780820151818401526020810190506102a3565b838111156102cd576000848401525b50505050565b60006102e66102e18461026f565b610254565b905082815260208101848484011115610302576103016101de565b5b61030d8482856102a0565b509392505050565b600082601f83011261032a576103296101d9565b5b815161033a8482602086016102d3565b91505092915050565b6000806040838503121561035a57610359610171565b5b6000610368858286016101c4565b925050602083015167ffffffffffffffff81111561038957610388610176565b5b61039585828601610315565b9150509250929050565b7f4e487b7100000000000000000000000000000000000000000000000000000000600052602260045260246000fd5b600060028204905060018216806103e657607f821691505b6020821081036103f9576103f861039f565b5b50919050565b6103258061040e6000396000f3fe608060405234801561001057600080fd5b50600436106100415760003560e01c80630ad9d05214610046578063514fa676146100645780638da5cb5b14610082575b600080fd5b61004e6100a0565b60405161005b9190610211565b60405180910390f35b61006c61012e565b6040516100799190610274565b60405180910390f35b61008a610154565b6040516100979190610274565b60405180910390f35b600180546100ad906102be565b80601f01602080910402602001604051908101604052809291908181526020018280546100d9906102be565b80156101265780601f106100fb57610100808354040283529160200191610126565b820191906000526020600020905b81548152906001019060200180831161010957829003601f168201915b505050505081565b600260009054906101000a900473ffffffffffffffffffffffffffffffffffffffff1681565b60008054906101000a900473ffffffffffffffffffffffffffffffffffffffff1681565b600081519050919050565b600082825260208201905092915050565b60005b838110156101b2578082015181840152602081019050610197565b838111156101c1576000848401525b50505050565b6000601f19601f8301169050919050565b60006101e382610178565b6101ed8185610183565b93506101fd818560208601610194565b610206816101c7565b840191505092915050565b6000602082019050818103600083015261022b81846101d8565b905092915050565b600073ffffffffffffffffffffffffffffffffffffffff82169050919050565b600061025e82610233565b9050919050565b61026e81610253565b82525050565b60006020820190506102896000830184610265565b92915050565b7f4e487b7100000000000000000000000000000000000000000000000000000000600052602260045260246000fd5b600060028204905060018216806102d657607f821691505b6020821081036102e9576102e861028f565b5b5091905056fea2646970667358221220f5e484dd79a0deaf5aaa0088f3027c168abc1efd8a862695ad5d1b534457b32864736f6c634300080d0033a26469706673582212203038e28c128f89c2493dd5b372ece75f3483165686748d731a0af4f46f50412864736f6c634300080d0033",
  "linkReferences": {},
  "deployedLinkReferences": {}
}