{
  "_format": "hh-sol-artifact-1",
  "contractName": "BitwiseOps",
  "sourceName": "contracts/Bitwise.sol",
  "abi": [
    {
      "inputs": [
        {
          "internalType": "uint256",
          "name": "x",
          "type": "uint256"
        },
        {
          "internalType": "uint256",
          "name": "y",
          "type": "uint256"
        }
      ],
      "name": "and",
      "outputs": [
        {
          "internalType": "uint256",
          "name": "",
          "type": "uint256"
        }
      ],
      "stateMutability": "pure",
      "type": "function"
    },
    {
      "inputs": [
        {
          "internalType": "uint256",
          "name": "x",
          "type": "uint256"
        },
        {
          "internalType": "uint256",
          "name": "n",
          "type": "uint256"
        },
        {
          "internalType": "uint256",
          "name": "len",
          "type": "uint256"
        }
      ],
      "name": "getFirstNBits",
      "outputs": [
        {
          "internalType": "uint256",
          "name": "",
          "type": "uint256"
        }
      ],
      "stateMutability": "pure",
      "type": "function"
    },
    {
      "inputs": [
        {
          "internalType": "uint256",
          "name": "x",
          "type": "uint256"
        },
        {
          "internalType": "uint256",
          "name": "n",
          "type": "uint256"
        }
      ],
      "name": "getLastNBits",
      "outputs": [
        {
          "internalType": "uint256",
          "name": "",
          "type": "uint256"
        }
      ],
      "stateMutability": "pure",
      "type": "function"
    },
    {
      "inputs": [
        {
          "internalType": "uint256",
          "name": "x",
          "type": "uint256"
        },
        {
          "internalType": "uint256",
          "name": "n",
          "type": "uint256"
        }
      ],
      "name": "getLastNBitsUsingMod",
      "outputs": [
        {
          "internalType": "uint256",
          "name": "",
          "type": "uint256"
        }
      ],
      "stateMutability": "pure",
      "type": "function"
    },
    {
      "inputs": [
        {
          "internalType": "uint256",
          "name": "x",
          "type": "uint256"
        }
      ],
      "name": "mostSignificantBit",
      "outputs": [
        {
          "internalType": "uint256",
          "name": "",
          "type": "uint256"
        }
      ],
      "stateMutability": "pure",
      "type": "function"
    },
    {
      "inputs": [
        {
          "internalType": "uint8",
          "name": "x",
          "type": "uint8"
        }
      ],
      "name": "not",
      "outputs": [
        {
          "internalType": "uint8",
          "name": "",
          "type": "uint8"
        }
      ],
      "stateMutability": "pure",
      "type": "function"
    },
    {
      "inputs": [
        {
          "internalType": "uint256",
          "name": "x",
          "type": "uint256"
        },
        {
          "internalType": "uint256",
          "name": "y",
          "type": "uint256"
        }
      ],
      "name": "or",
      "outputs": [
        {
          "internalType": "uint256",
          "name": "",
          "type": "uint256"
        }
      ],
      "stateMutability": "pure",
      "type": "function"
    },
    {
      "inputs": [
        {
          "internalType": "uint256",
          "name": "x",
          "type": "uint256"
        },
        {
          "internalType": "uint256",
          "name": "bits",
          "type": "uint256"
        }
      ],
      "name": "shiftLeft",
      "outputs": [
        {
          "internalType": "uint256",
          "name": "",
          "type": "uint256"
        }
      ],
      "stateMutability": "pure",
      "type": "function"
    },
    {
      "inputs": [
        {
          "internalType": "uint256",
          "name": "x",
          "type": "uint256"
        },
        {
          "internalType": "uint256",
          "name": "bits",
          "type": "uint256"
        }
      ],
      "name": "shiftRight",
      "outputs": [
        {
          "internalType": "uint256",
          "name": "",
          "type": "uint256"
        }
      ],
      "stateMutability": "pure",
      "type": "function"
    },
    {
      "inputs": [
        {
          "internalType": "uint256",
          "name": "x",
          "type": "uint256"
        },
        {
          "internalType": "uint256",
          "name": "y",
          "type": "uint256"
        }
      ],
      "name": "xor",
      "outputs": [
        {
          "internalType": "uint256",
          "name": "",
          "type": "uint256"
        }
      ],
      "stateMutability": "pure",
      "type": "function"
    }
  ],
  "bytecode": "0x608060405234801561001057600080fd5b50610666806100206000396000f3fe608060405234801561001057600080fd5b506004361061009e5760003560e01c8063903b984211610066578063903b9842146101935780639ed41ba1146101c3578063a589d212146101f3578063e6bcbc6514610223578063ecc43a0e146102535761009e565b8063097c2cb2146100a35780630a7d4a39146100d35780631180f8c3146101035780631685fa981461013357806321a9529614610163575b600080fd5b6100bd60048036038101906100b891906103ab565b610283565b6040516100ca91906103fa565b60405180910390f35b6100ed60048036038101906100e89190610415565b610290565b6040516100fa91906103fa565b60405180910390f35b61011d600480360381019061011891906104a1565b6102c1565b60405161012a91906104dd565b60405180910390f35b61014d600480360381019061014891906103ab565b6102cc565b60405161015a91906103fa565b60405180910390f35b61017d600480360381019061017891906103ab565b6102da565b60405161018a91906103fa565b60405180910390f35b6101ad60048036038101906101a891906103ab565b6102fc565b6040516101ba91906103fa565b60405180910390f35b6101dd60048036038101906101d891906103ab565b610309565b6040516101ea91906103fa565b60405180910390f35b61020d600480360381019061020891906103ab565b610316565b60405161021a91906103fa565b60405180910390f35b61023d600480360381019061023891906104f8565b610324565b60405161024a91906103fa565b60405180910390f35b61026d600480360381019061026891906103ab565b610356565b60405161027a91906103fa565b60405180910390f35b6000818317905092915050565b600080838361029f9190610554565b6001856001901b6102b09190610554565b901b90508085169150509392505050565b600081199050919050565b60008183901c905092915050565b6000806001836001901b6102ee9190610554565b905080841691505092915050565b6000818316905092915050565b6000818318905092915050565b60008183901b905092915050565b600080600090505b6000600184901c935083111561034d578061034690610588565b905061032c565b80915050919050565b6000816001901b8361036891906105ff565b905092915050565b600080fd5b6000819050919050565b61038881610375565b811461039357600080fd5b50565b6000813590506103a58161037f565b92915050565b600080604083850312156103c2576103c1610370565b5b60006103d085828601610396565b92505060206103e185828601610396565b9150509250929050565b6103f481610375565b82525050565b600060208201905061040f60008301846103eb565b92915050565b60008060006060848603121561042e5761042d610370565b5b600061043c86828701610396565b935050602061044d86828701610396565b925050604061045e86828701610396565b9150509250925092565b600060ff82169050919050565b61047e81610468565b811461048957600080fd5b50565b60008135905061049b81610475565b92915050565b6000602082840312156104b7576104b6610370565b5b60006104c58482850161048c565b91505092915050565b6104d781610468565b82525050565b60006020820190506104f260008301846104ce565b92915050565b60006020828403121561050e5761050d610370565b5b600061051c84828501610396565b91505092915050565b7f4e487b7100000000000000000000000000000000000000000000000000000000600052601160045260246000fd5b600061055f82610375565b915061056a83610375565b92508282101561057d5761057c610525565b5b828203905092915050565b600061059382610375565b91507fffffffffffffffffffffffffffffffffffffffffffffffffffffffffffffffff82036105c5576105c4610525565b5b600182019050919050565b7f4e487b7100000000000000000000000000000000000000000000000000000000600052601260045260246000fd5b600061060a82610375565b915061061583610375565b925082610625576106246105d0565b5b82820690509291505056fea2646970667358221220b05d1b95d982f032fc432dba6230ea9933b9d30a8c8e53614169732e6496426464736f6c634300080d0033",
  "linkReferences": {},
  "deployedLinkReferences": {}
}