{
  "_format": "hh-sol-artifact-1",
  "contractName": "Caller",
  "sourceName": "contracts/Call.sol",
  "abi": [
    {
      "anonymous": false,
      "inputs": [
        {
          "indexed": false,
          "internalType": "bool",
          "name": "success",
          "type": "bool"
        },
        {
          "indexed": false,
          "internalType": "bytes",
          "name": "data",
          "type": "bytes"
        }
      ],
      "name": "Response",
      "type": "event"
    },
    {
      "inputs": [
        {
          "internalType": "address payable",
          "name": "_addr",
          "type": "address"
        }
      ],
      "name": "testCallDoesNotExist",
      "outputs": [],
      "stateMutability": "payable",
      "type": "function"
    },
    {
      "inputs": [
        {
          "internalType": "address payable",
          "name": "_addr",
          "type": "address"
        }
      ],
      "name": "testCallFoo",
      "outputs": [],
      "stateMutability": "payable",
      "type": "function"
    }
  ],
  "bytecode": "0x608060405234801561001057600080fd5b506105b1806100206000396000f3fe6080604052600436106100295760003560e01c806387ba61791461002e578063ff00726c1461004a575b600080fd5b6100486004803603810190610043919061033a565b610066565b005b610064600480360381019061005f919061033a565b6101a7565b005b6000808273ffffffffffffffffffffffffffffffffffffffff163461138890607b6040516024016100979190610416565b6040516020818303038152906040527f24ccab8f000000000000000000000000000000000000000000000000000000007bffffffffffffffffffffffffffffffffffffffffffffffffffffffff19166020820180517bffffffffffffffffffffffffffffffffffffffffffffffffffffffff838183161783525050505060405161012191906104be565b600060405180830381858888f193505050503d806000811461015f576040519150601f19603f3d011682016040523d82523d6000602084013e610164565b606091505b50915091507f13848c3e38f8886f3f5d2ad9dff80d8092c2bbb8efd5b887a99c2c6cfc09ac2a828260405161019a92919061054b565b60405180910390a1505050565b6000808273ffffffffffffffffffffffffffffffffffffffff16346040516024016040516020818303038152906040527f1dcc85ae000000000000000000000000000000000000000000000000000000007bffffffffffffffffffffffffffffffffffffffffffffffffffffffff19166020820180517bffffffffffffffffffffffffffffffffffffffffffffffffffffffff838183161783525050505060405161025291906104be565b60006040518083038185875af1925050503d806000811461028f576040519150601f19603f3d011682016040523d82523d6000602084013e610294565b606091505b50915091507f13848c3e38f8886f3f5d2ad9dff80d8092c2bbb8efd5b887a99c2c6cfc09ac2a82826040516102ca92919061054b565b60405180910390a1505050565b600080fd5b600073ffffffffffffffffffffffffffffffffffffffff82169050919050565b6000610307826102dc565b9050919050565b610317816102fc565b811461032257600080fd5b50565b6000813590506103348161030e565b92915050565b6000602082840312156103505761034f6102d7565b5b600061035e84828501610325565b91505092915050565b600082825260208201905092915050565b7f63616c6c20666f6f000000000000000000000000000000000000000000000000600082015250565b60006103ae600883610367565b91506103b982610378565b602082019050919050565b6000819050919050565b600060ff82169050919050565b6000819050919050565b60006104006103fb6103f6846103c4565b6103db565b6103ce565b9050919050565b610410816103e5565b82525050565b6000604082019050818103600083015261042f816103a1565b905061043e6020830184610407565b92915050565b600081519050919050565b600081905092915050565b60005b8381101561047857808201518184015260208101905061045d565b83811115610487576000848401525b50505050565b600061049882610444565b6104a2818561044f565b93506104b281856020860161045a565b80840191505092915050565b60006104ca828461048d565b915081905092915050565b60008115159050919050565b6104ea816104d5565b82525050565b600082825260208201905092915050565b6000601f19601f8301169050919050565b600061051d82610444565b61052781856104f0565b935061053781856020860161045a565b61054081610501565b840191505092915050565b600060408201905061056060008301856104e1565b81810360208301526105728184610512565b9050939250505056fea2646970667358221220e1ba4deb2042085fa5cf78bbf1441b47366fa7fd79304239d56b8aeb5575db2764736f6c634300080d0033",
  "linkReferences": {},
  "deployedLinkReferences": {}
}