{
  "_format": "hh-sol-artifact-1",
  "contractName": "Receiver",
  "sourceName": "contracts/Call.sol",
  "abi": [
    {
      "anonymous": false,
      "inputs": [
        {
          "indexed": false,
          "internalType": "address",
          "name": "caller",
          "type": "address"
        },
        {
          "indexed": false,
          "internalType": "uint256",
          "name": "amount",
          "type": "uint256"
        },
        {
          "indexed": false,
          "internalType": "string",
          "name": "message",
          "type": "string"
        }
      ],
      "name": "Received",
      "type": "event"
    },
    {
      "stateMutability": "payable",
      "type": "fallback"
    },
    {
      "inputs": [
        {
          "internalType": "string",
          "name": "_message",
          "type": "string"
        },
        {
          "internalType": "uint256",
          "name": "_x",
          "type": "uint256"
        }
      ],
      "name": "foo",
      "outputs": [
        {
          "internalType": "uint256",
          "name": "",
          "type": "uint256"
        }
      ],
      "stateMutability": "payable",
      "type": "function"
    }
  ],
  "bytecode": "0x608060405234801561001057600080fd5b50610540806100206000396000f3fe6080604052600436106100225760003560e01c806324ccab8f1461005e57610023565b5b7f59e04c3f0d44b7caf6e8ef854b61d9a51cf1960d7a88ff6356cc5e946b4b58323334604051610054929190610197565b60405180910390a1005b61007860048036038101906100739190610359565b61008e565b60405161008591906103b5565b60405180910390f35b60007f59e04c3f0d44b7caf6e8ef854b61d9a51cf1960d7a88ff6356cc5e946b4b58323334856040516100c393929190610447565b60405180910390a16001826100d891906104b4565b905092915050565b600073ffffffffffffffffffffffffffffffffffffffff82169050919050565b600061010b826100e0565b9050919050565b61011b81610100565b82525050565b6000819050919050565b61013481610121565b82525050565b600082825260208201905092915050565b7f46616c6c6261636b207761732063616c6c656400000000000000000000000000600082015250565b600061018160138361013a565b915061018c8261014b565b602082019050919050565b60006060820190506101ac6000830185610112565b6101b9602083018461012b565b81810360408301526101ca81610174565b90509392505050565b6000604051905090565b600080fd5b600080fd5b600080fd5b600080fd5b6000601f19601f8301169050919050565b7f4e487b7100000000000000000000000000000000000000000000000000000000600052604160045260246000fd5b61023a826101f1565b810181811067ffffffffffffffff8211171561025957610258610202565b5b80604052505050565b600061026c6101d3565b90506102788282610231565b919050565b600067ffffffffffffffff82111561029857610297610202565b5b6102a1826101f1565b9050602081019050919050565b82818337600083830152505050565b60006102d06102cb8461027d565b610262565b9050828152602081018484840111156102ec576102eb6101ec565b5b6102f78482856102ae565b509392505050565b600082601f830112610314576103136101e7565b5b81356103248482602086016102bd565b91505092915050565b61033681610121565b811461034157600080fd5b50565b6000813590506103538161032d565b92915050565b600080604083850312156103705761036f6101dd565b5b600083013567ffffffffffffffff81111561038e5761038d6101e2565b5b61039a858286016102ff565b92505060206103ab85828601610344565b9150509250929050565b60006020820190506103ca600083018461012b565b92915050565b600081519050919050565b60005b838110156103f95780820151818401526020810190506103de565b83811115610408576000848401525b50505050565b6000610419826103d0565b610423818561013a565b93506104338185602086016103db565b61043c816101f1565b840191505092915050565b600060608201905061045c6000830186610112565b610469602083018561012b565b818103604083015261047b818461040e565b9050949350505050565b7f4e487b7100000000000000000000000000000000000000000000000000000000600052601160045260246000fd5b60006104bf82610121565b91506104ca83610121565b9250827fffffffffffffffffffffffffffffffffffffffffffffffffffffffffffffffff038211156104ff576104fe610485565b5b82820190509291505056fea26469706673582212205656326fdb24e0f13e24dbc40389d186db368dfd3dba94006149ee8d49ba149f64736f6c634300080d0033",
  "linkReferences": {},
  "deployedLinkReferences": {}
}