{
  "_format": "hh-sol-artifact-1",
  "contractName": "Function",
  "sourceName": "contracts/Function.sol",
  "abi": [
    {
      "inputs": [
        {
          "internalType": "uint256",
          "name": "",
          "type": "uint256"
        }
      ],
      "name": "arr",
      "outputs": [
        {
          "internalType": "uint256",
          "name": "",
          "type": "uint256"
        }
      ],
      "stateMutability": "view",
      "type": "function"
    },
    {
      "inputs": [
        {
          "internalType": "uint256[]",
          "name": "_arr",
          "type": "uint256[]"
        }
      ],
      "name": "arrayInput",
      "outputs": [],
      "stateMutability": "nonpayable",
      "type": "function"
    },
    {
      "inputs": [],
      "name": "arrayOutput",
      "outputs": [
        {
          "internalType": "uint256[]",
          "name": "",
          "type": "uint256[]"
        }
      ],
      "stateMutability": "view",
      "type": "function"
    },
    {
      "inputs": [],
      "name": "assigned",
      "outputs": [
        {
          "internalType": "uint256",
          "name": "x",
          "type": "uint256"
        },
        {
          "internalType": "bool",
          "name": "b",
          "type": "bool"
        },
        {
          "internalType": "uint256",
          "name": "y",
          "type": "uint256"
        }
      ],
      "stateMutability": "pure",
      "type": "function"
    },
    {
      "inputs": [],
      "name": "destructuringAssignments",
      "outputs": [
        {
          "internalType": "uint256",
          "name": "",
          "type": "uint256"
        },
        {
          "internalType": "bool",
          "name": "",
          "type": "bool"
        },
        {
          "internalType": "uint256",
          "name": "",
          "type": "uint256"
        },
        {
          "internalType": "uint256",
          "name": "",
          "type": "uint256"
        },
        {
          "internalType": "uint256",
          "name": "",
          "type": "uint256"
        }
      ],
      "stateMutability": "pure",
      "type": "function"
    },
    {
      "inputs": [],
      "name": "named",
      "outputs": [
        {
          "internalType": "uint256",
          "name": "x",
          "type": "uint256"
        },
        {
          "internalType": "bool",
          "name": "b",
          "type": "bool"
        },
        {
          "internalType": "uint256",
          "name": "y",
          "type": "uint256"
        }
      ],
      "stateMutability": "pure",
      "type": "function"
    },
    {
      "inputs": [],
      "name": "returnMany",
      "outputs": [
        {
          "internalType": "uint256",
          "name": "",
          "type": "uint256"
        },
        {
          "internalType": "bool",
          "name": "",
          "type": "bool"
        },
        {
          "internalType": "uint256",
          "name": "",
          "type": "uint256"
        }
      ],
      "stateMutability": "pure",
      "type": "function"
    }
  ],
  "bytecode": "0x608060405234801561001057600080fd5b5061066e806100206000396000f3fe608060405234801561001057600080fd5b506004361061007d5760003560e01c806371e5ee5f1161005b57806371e5ee5f146100e25780638688754414610112578063adb4d99014610132578063f4bb6e6b146101525761007d565b80631990532b1461008257806345f907a8146100a057806368873440146100c0575b600080fd5b61008a61016e565b6040516100979190610338565b60405180910390f35b6100a86101c6565b6040516100b793929190610384565b60405180910390f35b6100c86101db565b6040516100d99594939291906103bb565b60405180910390f35b6100fc60048036038101906100f7919061044e565b61021e565b604051610109919061047b565b60405180910390f35b61011a610242565b60405161012993929190610384565b60405180910390f35b61013a610257565b60405161014993929190610384565b60405180910390f35b61016c600480360381019061016791906105ef565b61026d565b005b606060008054806020026020016040519081016040528092919081815260200182805480156101bc57602002820191906000526020600020905b8154815260200190600101908083116101a8575b5050505050905090565b60008060006001806002925092509250909192565b6000806000806000806000806101ef610242565b925092509250600080600460056006925050915084848484849950995099509950995050505050509091929394565b6000818154811061022e57600080fd5b906000526020600020016000915090505481565b60008060006001806002925092509250909192565b6000806000600192506001915060029050909192565b50565b600081519050919050565b600082825260208201905092915050565b6000819050602082019050919050565b6000819050919050565b6102af8161029c565b82525050565b60006102c183836102a6565b60208301905092915050565b6000602082019050919050565b60006102e582610270565b6102ef818561027b565b93506102fa8361028c565b8060005b8381101561032b57815161031288826102b5565b975061031d836102cd565b9250506001810190506102fe565b5085935050505092915050565b6000602082019050818103600083015261035281846102da565b905092915050565b6103638161029c565b82525050565b60008115159050919050565b61037e81610369565b82525050565b6000606082019050610399600083018661035a565b6103a66020830185610375565b6103b3604083018461035a565b949350505050565b600060a0820190506103d0600083018861035a565b6103dd6020830187610375565b6103ea604083018661035a565b6103f7606083018561035a565b610404608083018461035a565b9695505050505050565b6000604051905090565b600080fd5b600080fd5b61042b8161029c565b811461043657600080fd5b50565b60008135905061044881610422565b92915050565b60006020828403121561046457610463610418565b5b600061047284828501610439565b91505092915050565b6000602082019050610490600083018461035a565b92915050565b600080fd5b6000601f19601f8301169050919050565b7f4e487b7100000000000000000000000000000000000000000000000000000000600052604160045260246000fd5b6104e48261049b565b810181811067ffffffffffffffff82111715610503576105026104ac565b5b80604052505050565b600061051661040e565b905061052282826104db565b919050565b600067ffffffffffffffff821115610542576105416104ac565b5b602082029050602081019050919050565b600080fd5b600061056b61056684610527565b61050c565b9050808382526020820190506020840283018581111561058e5761058d610553565b5b835b818110156105b757806105a38882610439565b845260208401935050602081019050610590565b5050509392505050565b600082601f8301126105d6576105d5610496565b5b81356105e6848260208601610558565b91505092915050565b60006020828403121561060557610604610418565b5b600082013567ffffffffffffffff8111156106235761062261041d565b5b61062f848285016105c1565b9150509291505056fea26469706673582212204b92c882b1c5bd08a2dc73075af0ae2231c5283cab893c8e30346418f077627064736f6c634300080d0033",
  "linkReferences": {},
  "deployedLinkReferences": {}
}