{
  "_format": "hh-sol-artifact-1",
  "contractName": "XYZ",
  "sourceName": "contracts/Function.sol",
  "abi": [
    {
      "inputs": [],
      "name": "callFunc",
      "outputs": [
        {
          "internalType": "uint256",
          "name": "",
          "type": "uint256"
        }
      ],
      "stateMutability": "pure",
      "type": "function"
    },
    {
      "inputs": [],
      "name": "callFuncWithKeyValue",
      "outputs": [
        {
          "internalType": "uint256",
          "name": "",
          "type": "uint256"
        }
      ],
      "stateMutability": "pure",
      "type": "function"
    },
    {
      "inputs": [
        {
          "internalType": "uint256",
          "name": "x",
          "type": "uint256"
        },
        {
          "internalType": "uint256",
          "name": "y",
          "type": "uint256"
        },
        {
          "internalType": "uint256",
          "name": "z",
          "type": "uint256"
        },
        {
          "internalType": "address",
          "name": "a",
          "type": "address"
        },
        {
          "internalType": "bool",
          "name": "b",
          "type": "bool"
        },
        {
          "internalType": "string",
          "name": "c",
          "type": "string"
        }
      ],
      "name": "someFuncWithManyInputs",
      "outputs": [
        {
          "internalType": "uint256",
          "name": "",
          "type": "uint256"
        }
      ],
      "stateMutability": "pure",
      "type": "function"
    }
  ],
  "bytecode": "0x608060405234801561001057600080fd5b5061048b806100206000396000f3fe608060405234801561001057600080fd5b50600436106100415760003560e01c8063127b4e081461004657806372057987146100765780639a7846b914610094575b600080fd5b610060600480360381019061005b9190610382565b6100b2565b60405161006d919061043a565b60405180910390f35b61007e6100be565b60405161008b919061043a565b60405180910390f35b61009c61010d565b6040516100a9919061043a565b60405180910390f35b60009695505050505050565b6000610108600160026003600060016040518060400160405280600181526020017f63000000000000000000000000000000000000000000000000000000000000008152506100b2565b905090565b6000610157600160026003600060016040518060400160405280600181526020017f63000000000000000000000000000000000000000000000000000000000000008152506100b2565b905090565b6000604051905090565b600080fd5b600080fd5b6000819050919050565b61018381610170565b811461018e57600080fd5b50565b6000813590506101a08161017a565b92915050565b600073ffffffffffffffffffffffffffffffffffffffff82169050919050565b60006101d1826101a6565b9050919050565b6101e1816101c6565b81146101ec57600080fd5b50565b6000813590506101fe816101d8565b92915050565b60008115159050919050565b61021981610204565b811461022457600080fd5b50565b60008135905061023681610210565b92915050565b600080fd5b600080fd5b6000601f19601f8301169050919050565b7f4e487b7100000000000000000000000000000000000000000000000000000000600052604160045260246000fd5b61028f82610246565b810181811067ffffffffffffffff821117156102ae576102ad610257565b5b80604052505050565b60006102c161015c565b90506102cd8282610286565b919050565b600067ffffffffffffffff8211156102ed576102ec610257565b5b6102f682610246565b9050602081019050919050565b82818337600083830152505050565b6000610325610320846102d2565b6102b7565b90508281526020810184848401111561034157610340610241565b5b61034c848285610303565b509392505050565b600082601f8301126103695761036861023c565b5b8135610379848260208601610312565b91505092915050565b60008060008060008060c0878903121561039f5761039e610166565b5b60006103ad89828a01610191565b96505060206103be89828a01610191565b95505060406103cf89828a01610191565b94505060606103e089828a016101ef565b93505060806103f189828a01610227565b92505060a087013567ffffffffffffffff8111156104125761041161016b565b5b61041e89828a01610354565b9150509295509295509295565b61043481610170565b82525050565b600060208201905061044f600083018461042b565b9291505056fea264697066735822122004d0afbfa587b1888a8c03856d5e6c6b17d517a502a147c4627177789e055df164736f6c634300080d0033",
  "linkReferences": {},
  "deployedLinkReferences": {}
}