{
  "_format": "hh-sol-artifact-1",
  "contractName": "MostSignificantBitAssembly",
  "sourceName": "contracts/MostSignificantBitAssembly.sol",
  "abi": [
    {
      "inputs": [
        {
          "internalType": "uint256",
          "name": "x",
          "type": "uint256"
        }
      ],
      "name": "mostSignificantBit",
      "outputs": [
        {
          "internalType": "uint256",
          "name": "msb",
          "type": "uint256"
        }
      ],
      "stateMutability": "pure",
      "type": "function"
    }
  ],
  "bytecode": "0x608060405234801561001057600080fd5b506101d1806100206000396000f3fe608060405234801561001057600080fd5b506004361061002b5760003560e01c8063e6bcbc6514610030575b600080fd5b61004a60048036038101906100459190610144565b610060565b6040516100579190610180565b60405180910390f35b60006fffffffffffffffffffffffffffffffff821160071b82811c925080821791505067ffffffffffffffff821160061b82811c925080821791505063ffffffff821160051b82811c925080821791505061ffff821160041b82811c925080821791505060ff821160031b82811c9250808217915050600f821160021b82811c92508082179150506003821160011b82811c925080821791505060018211808217915050919050565b600080fd5b6000819050919050565b6101218161010e565b811461012c57600080fd5b50565b60008135905061013e81610118565b92915050565b60006020828403121561015a57610159610109565b5b60006101688482850161012f565b91505092915050565b61017a8161010e565b82525050565b60006020820190506101956000830184610171565b9291505056fea26469706673582212207ff6a92297a38cafe21484fb75aaa1af592fc37c5dc851b694b8de4b98337b9b64736f6c634300080d0033",
  "linkReferences": {},
  "deployedLinkReferences": {}
}