{
  "_format": "hh-sol-artifact-1",
  "contractName": "A",
  "sourceName": "contracts/Delegatecall.sol",
  "abi": [
    {
      "inputs": [],
      "name": "num",
      "outputs": [
        {
          "internalType": "uint256",
          "name": "",
          "type": "uint256"
        }
      ],
      "stateMutability": "view",
      "type": "function"
    },
    {
      "inputs": [],
      "name": "sender",
      "outputs": [
        {
          "internalType": "address",
          "name": "",
          "type": "address"
        }
      ],
      "stateMutability": "view",
      "type": "function"
    },
    {
      "inputs": [
        {
          "internalType": "address",
          "name": "_contract",
          "type": "address"
        },
        {
          "internalType": "uint256",
          "name": "_num",
          "type": "uint256"
        }
      ],
      "name": "setVars",
      "outputs": [],
      "stateMutability": "payable",
      "type": "function"
    },
    {
      "inputs": [],
      "name": "value",
      "outputs": [
        {
          "internalType": "uint256",
          "name": "",
          "type": "uint256"
        }
      ],
      "stateMutability": "view",
      "type": "function"
    }
  ],
  "bytecode": "0x608060405234801561001057600080fd5b506103ef806100206000396000f3fe60806040526004361061003f5760003560e01c80633fa4f245146100445780634e70b1dc1461006f57806367e404ce1461009a578063d1e0f308146100c5575b600080fd5b34801561005057600080fd5b506100596100e1565b6040516100669190610214565b60405180910390f35b34801561007b57600080fd5b506100846100e7565b6040516100919190610214565b60405180910390f35b3480156100a657600080fd5b506100af6100ed565b6040516100bc9190610270565b60405180910390f35b6100df60048036038101906100da91906102e8565b610113565b005b60025481565b60005481565b600160009054906101000a900473ffffffffffffffffffffffffffffffffffffffff1681565b6000808373ffffffffffffffffffffffffffffffffffffffff16636466414b60e01b846040516024016101469190610214565b604051602081830303815290604052907bffffffffffffffffffffffffffffffffffffffffffffffffffffffff19166020820180517bffffffffffffffffffffffffffffffffffffffffffffffffffffffff83818316178352505050506040516101b091906103a2565b600060405180830381855af49150503d80600081146101eb576040519150601f19603f3d011682016040523d82523d6000602084013e6101f0565b606091505b509150915050505050565b6000819050919050565b61020e816101fb565b82525050565b60006020820190506102296000830184610205565b92915050565b600073ffffffffffffffffffffffffffffffffffffffff82169050919050565b600061025a8261022f565b9050919050565b61026a8161024f565b82525050565b60006020820190506102856000830184610261565b92915050565b600080fd5b6102998161024f565b81146102a457600080fd5b50565b6000813590506102b681610290565b92915050565b6102c5816101fb565b81146102d057600080fd5b50565b6000813590506102e2816102bc565b92915050565b600080604083850312156102ff576102fe61028b565b5b600061030d858286016102a7565b925050602061031e858286016102d3565b9150509250929050565b600081519050919050565b600081905092915050565b60005b8381101561035c578082015181840152602081019050610341565b8381111561036b576000848401525b50505050565b600061037c82610328565b6103868185610333565b935061039681856020860161033e565b80840191505092915050565b60006103ae8284610371565b91508190509291505056fea2646970667358221220970fd318cbdff041e07a40bbcf24eb22a111f8da86dc515a81f572a18a6bb39364736f6c634300080d0033",
  "linkReferences": {},
  "deployedLinkReferences": {}
}