{
  "_format": "hh-sol-artifact-1",
  "contractName": "AbiDecode",
  "sourceName": "contracts/AbiDecode.sol",
  "abi": [
    {
      "inputs": [
        {
          "internalType": "bytes",
          "name": "data",
          "type": "bytes"
        }
      ],
      "name": "decode",
      "outputs": [
        {
          "internalType": "uint256",
          "name": "x",
          "type": "uint256"
        },
        {
          "internalType": "address",
          "name": "addr",
          "type": "address"
        },
        {
          "internalType": "uint256[]",
          "name": "arr",
          "type": "uint256[]"
        },
        {
          "components": [
            {
              "internalType": "string",
              "name": "name",
              "type": "string"
            },
            {
              "internalType": "uint256[2]",
              "name": "nums",
              "type": "uint256[2]"
            }
          ],
          "internalType": "struct AbiDecode.MyStruct",
          "name": "myStruct",
          "type": "tuple"
        }
      ],
      "stateMutability": "pure",
      "type": "function"
    },
    {
      "inputs": [
        {
          "internalType": "uint256",
          "name": "x",
          "type": "uint256"
        },
        {
          "internalType": "address",
          "name": "addr",
          "type": "address"
        },
        {
          "internalType": "uint256[]",
          "name": "arr",
          "type": "uint256[]"
        },
        {
          "components": [
            {
              "internalType": "string",
              "name": "name",
              "type": "string"
            },
            {
              "internalType": "uint256[2]",
              "name": "nums",
              "type": "uint256[2]"
            }
          ],
          "internalType": "struct AbiDecode.MyStruct",
          "name": "myStruct",
          "type": "tuple"
        }
      ],
      "name": "encode",
      "outputs": [
        {
          "internalType": "bytes",
          "name": "",
          "type": "bytes"
        }
      ],
      "stateMutability": "pure",
      "type": "function"
    }
  ],
  "bytecode": "0x608060405234801561001057600080fd5b50610cae806100206000396000f3fe608060405234801561001057600080fd5b50600436106100365760003560e01c80637049e0871461003b578063e5c5e9a31461006b575b600080fd5b6100556004803603810190610050919061027b565b61009e565b60405161006291906103b8565b60405180910390f35b61008560048036038101906100809190610430565b6100d3565b604051610095949392919061066f565b60405180910390f35b606085858585856040516020016100b995949392919061083b565b604051602081830303815290604052905095945050505050565b60008060606100e0610108565b85858101906100ef9190610bd9565b8094508195508296508397505050505092959194509250565b604051806040016040528060608152602001610122610128565b81525090565b6040518060400160405280600290602082028036833780820191505090505090565b6000604051905090565b600080fd5b600080fd5b6000819050919050565b6101718161015e565b811461017c57600080fd5b50565b60008135905061018e81610168565b92915050565b600073ffffffffffffffffffffffffffffffffffffffff82169050919050565b60006101bf82610194565b9050919050565b6101cf816101b4565b81146101da57600080fd5b50565b6000813590506101ec816101c6565b92915050565b600080fd5b600080fd5b600080fd5b60008083601f840112610217576102166101f2565b5b8235905067ffffffffffffffff811115610234576102336101f7565b5b6020830191508360208202830111156102505761024f6101fc565b5b9250929050565b600080fd5b60006060828403121561027257610271610257565b5b81905092915050565b60008060008060006080868803121561029757610296610154565b5b60006102a58882890161017f565b95505060206102b6888289016101dd565b945050604086013567ffffffffffffffff8111156102d7576102d6610159565b5b6102e388828901610201565b9350935050606086013567ffffffffffffffff81111561030657610305610159565b5b6103128882890161025c565b9150509295509295909350565b600081519050919050565b600082825260208201905092915050565b60005b8381101561035957808201518184015260208101905061033e565b83811115610368576000848401525b50505050565b6000601f19601f8301169050919050565b600061038a8261031f565b610394818561032a565b93506103a481856020860161033b565b6103ad8161036e565b840191505092915050565b600060208201905081810360008301526103d2818461037f565b905092915050565b60008083601f8401126103f0576103ef6101f2565b5b8235905067ffffffffffffffff81111561040d5761040c6101f7565b5b602083019150836001820283011115610429576104286101fc565b5b9250929050565b6000806020838503121561044757610446610154565b5b600083013567ffffffffffffffff81111561046557610464610159565b5b610471858286016103da565b92509250509250929050565b6104868161015e565b82525050565b610495816101b4565b82525050565b600081519050919050565b600082825260208201905092915050565b6000819050602082019050919050565b6104d08161015e565b82525050565b60006104e283836104c7565b60208301905092915050565b6000602082019050919050565b60006105068261049b565b61051081856104a6565b935061051b836104b7565b8060005b8381101561054c57815161053388826104d6565b975061053e836104ee565b92505060018101905061051f565b5085935050505092915050565b600081519050919050565b600082825260208201905092915050565b600061058082610559565b61058a8185610564565b935061059a81856020860161033b565b6105a38161036e565b840191505092915050565b600060029050919050565b600081905092915050565b6000819050919050565b6000602082019050919050565b6105e4816105ae565b6105ee81846105b9565b92506105f9826105c4565b8060005b8381101561062a57815161061187826104d6565b965061061c836105ce565b9250506001810190506105fd565b505050505050565b6000606083016000830151848203600086015261064f8282610575565b915050602083015161066460208601826105db565b508091505092915050565b6000608082019050610684600083018761047d565b610691602083018661048c565b81810360408301526106a381856104fb565b905081810360608301526106b78184610632565b905095945050505050565b600080fd5b82818337600083830152505050565b60006106e283856104a6565b93507f07ffffffffffffffffffffffffffffffffffffffffffffffffffffffffffffff831115610715576107146106c2565b5b6020830292506107268385846106c7565b82840190509392505050565b600080fd5b600080fd5b600080fd5b6000808335600160200384360303811261075e5761075d61073c565b5b83810192508235915060208301925067ffffffffffffffff82111561078657610785610732565b5b60018202360384131561079c5761079b610737565b5b509250929050565b60006107b08385610564565b93506107bd8385846106c7565b6107c68361036e565b840190509392505050565b600082905092915050565b6107e8604083836106c7565b5050565b6000606083016107ff6000840184610741565b85830360008701526108128382846107a4565b9250505061082360208401846107d1565b61083060208601826107dc565b508091505092915050565b6000608082019050610850600083018861047d565b61085d602083018761048c565b81810360408301526108708185876106d6565b9050818103606083015261088481846107ec565b90509695505050505050565b600061089b82610194565b9050919050565b6108ab81610890565b81146108b657600080fd5b50565b6000813590506108c8816108a2565b92915050565b7f4e487b7100000000000000000000000000000000000000000000000000000000600052604160045260246000fd5b6109068261036e565b810181811067ffffffffffffffff82111715610925576109246108ce565b5b80604052505050565b600061093861014a565b905061094482826108fd565b919050565b600067ffffffffffffffff821115610964576109636108ce565b5b602082029050602081019050919050565b600061098861098384610949565b61092e565b905080838252602082019050602084028301858111156109ab576109aa6101fc565b5b835b818110156109d457806109c0888261017f565b8452602084019350506020810190506109ad565b5050509392505050565b600082601f8301126109f3576109f26101f2565b5b8135610a03848260208601610975565b91505092915050565b600080fd5b600080fd5b600080fd5b600067ffffffffffffffff821115610a3657610a356108ce565b5b610a3f8261036e565b9050602081019050919050565b6000610a5f610a5a84610a1b565b61092e565b905082815260208101848484011115610a7b57610a7a610a16565b5b610a868482856106c7565b509392505050565b600082601f830112610aa357610aa26101f2565b5b8135610ab3848260208601610a4c565b91505092915050565b600067ffffffffffffffff821115610ad757610ad66108ce565b5b602082029050919050565b6000610af5610af084610abc565b61092e565b90508060208402830185811115610b0f57610b0e6101fc565b5b835b81811015610b385780610b24888261017f565b845260208401935050602081019050610b11565b5050509392505050565b600082601f830112610b5757610b566101f2565b5b6002610b64848285610ae2565b91505092915050565b600060608284031215610b8357610b82610a0c565b5b610b8d604061092e565b9050600082013567ffffffffffffffff811115610bad57610bac610a11565b5b610bb984828501610a8e565b6000830152506020610bcd84828501610b42565b60208301525092915050565b60008060008060808587031215610bf357610bf2610154565b5b6000610c018782880161017f565b9450506020610c12878288016108b9565b935050604085013567ffffffffffffffff811115610c3357610c32610159565b5b610c3f878288016109de565b925050606085013567ffffffffffffffff811115610c6057610c5f610159565b5b610c6c87828801610b6d565b9150509295919450925056fea2646970667358221220736888bbeec309ef9267114f1038ca715d8ffa6390d9c28d96bc08cd081446b764736f6c634300080d0033",
  "linkReferences": {},
  "deployedLinkReferences": {}
}