{
  "_format": "hh-sol-artifact-1",
  "contractName": "MyContract",
  "sourceName": "contracts/Interface.sol",
  "abi": [
    {
      "inputs": [
        {
          "internalType": "address",
          "name": "_counter",
          "type": "address"
        }
      ],
      "name": "getCount",
      "outputs": [
        {
          "internalType": "uint256",
          "name": "",
          "type": "uint256"
        }
      ],
      "stateMutability": "view",
      "type": "function"
    },
    {
      "inputs": [
        {
          "internalType": "address",
          "name": "_counter",
          "type": "address"
        }
      ],
      "name": "incrementCounter",
      "outputs": [],
      "stateMutability": "nonpayable",
      "type": "function"
    }
  ],
  "bytecode": "0x608060405234801561001057600080fd5b506102b5806100206000396000f3fe608060405234801561001057600080fd5b50600436106100365760003560e01c80634f0cd27b1461003b578063e5910ae71461006b575b600080fd5b610055600480360381019061005091906101c5565b610087565b604051610062919061020b565b60405180910390f35b610085600480360381019061008091906101c5565b6100ff565b005b60008173ffffffffffffffffffffffffffffffffffffffff166306661abd6040518163ffffffff1660e01b8152600401602060405180830381865afa1580156100d4573d6000803e3d6000fd5b505050506040513d601f19601f820116820180604052508101906100f89190610252565b9050919050565b8073ffffffffffffffffffffffffffffffffffffffff1663d09de08a6040518163ffffffff1660e01b8152600401600060405180830381600087803b15801561014757600080fd5b505af115801561015b573d6000803e3d6000fd5b5050505050565b600080fd5b600073ffffffffffffffffffffffffffffffffffffffff82169050919050565b600061019282610167565b9050919050565b6101a281610187565b81146101ad57600080fd5b50565b6000813590506101bf81610199565b92915050565b6000602082840312156101db576101da610162565b5b60006101e9848285016101b0565b91505092915050565b6000819050919050565b610205816101f2565b82525050565b600060208201905061022060008301846101fc565b92915050565b61022f816101f2565b811461023a57600080fd5b50565b60008151905061024c81610226565b92915050565b60006020828403121561026857610267610162565b5b60006102768482850161023d565b9150509291505056fea26469706673582212200c9bdb562b86e5690c2bee739ac758986a0ff229ad0db3f9e20323934209472864736f6c634300080d0033",
  "linkReferences": {},
  "deployedLinkReferences": {}
}