{
  "_format": "hh-sol-artifact-1",
  "contractName": "SendToFallback",
  "sourceName": "contracts/Fallback.sol",
  "abi": [
    {
      "inputs": [
        {
          "internalType": "address payable",
          "name": "_to",
          "type": "address"
        }
      ],
      "name": "callFallback",
      "outputs": [],
      "stateMutability": "payable",
      "type": "function"
    },
    {
      "inputs": [
        {
          "internalType": "address payable",
          "name": "_to",
          "type": "address"
        }
      ],
      "name": "transferToFallback",
      "outputs": [],
      "stateMutability": "payable",
      "type": "function"
    }
  ],
  "bytecode": "0x608060405234801561001057600080fd5b506102e9806100206000396000f3fe6080604052600436106100295760003560e01c80636ba87a531461002e578063cfc6cdaa1461004a575b600080fd5b610048600480360381019061004391906101c3565b610066565b005b610064600480360381019061005f91906101c3565b610116565b005b60008173ffffffffffffffffffffffffffffffffffffffff163460405161008c90610221565b60006040518083038185875af1925050503d80600081146100c9576040519150601f19603f3d011682016040523d82523d6000602084013e6100ce565b606091505b5050905080610112576040517f08c379a000000000000000000000000000000000000000000000000000000000815260040161010990610293565b60405180910390fd5b5050565b8073ffffffffffffffffffffffffffffffffffffffff166108fc349081150290604051600060405180830381858888f1935050505015801561015c573d6000803e3d6000fd5b5050565b600080fd5b600073ffffffffffffffffffffffffffffffffffffffff82169050919050565b600061019082610165565b9050919050565b6101a081610185565b81146101ab57600080fd5b50565b6000813590506101bd81610197565b92915050565b6000602082840312156101d9576101d8610160565b5b60006101e7848285016101ae565b91505092915050565b600081905092915050565b50565b600061020b6000836101f0565b9150610216826101fb565b600082019050919050565b600061022c826101fe565b9150819050919050565b600082825260208201905092915050565b7f4661696c656420746f2073656e64204574686572000000000000000000000000600082015250565b600061027d601483610236565b915061028882610247565b602082019050919050565b600060208201905081810360008301526102ac81610270565b905091905056fea2646970667358221220556526d912bbc8e7d58aa5576c34a51ed96b5fa567922ee46a50a85bd087a70164736f6c634300080d0033",
  "linkReferences": {},
  "deployedLinkReferences": {}
}