{
  "_format": "hh-sol-artifact-1",
  "contractName": "DataLocations",
  "sourceName": "contracts/DataLocations.sol",
  "abi": [
    {
      "inputs": [
        {
          "internalType": "uint256",
          "name": "",
          "type": "uint256"
        }
      ],
      "name": "arr",
      "outputs": [
        {
          "internalType": "uint256",
          "name": "",
          "type": "uint256"
        }
      ],
      "stateMutability": "view",
      "type": "function"
    },
    {
      "inputs": [],
      "name": "f",
      "outputs": [],
      "stateMutability": "nonpayable",
      "type": "function"
    },
    {
      "inputs": [
        {
          "internalType": "uint256[]",
          "name": "_arr",
          "type": "uint256[]"
        }
      ],
      "name": "g",
      "outputs": [
        {
          "internalType": "uint256[]",
          "name": "",
          "type": "uint256[]"
        }
      ],
      "stateMutability": "nonpayable",
      "type": "function"
    },
    {
      "inputs": [
        {
          "internalType": "uint256[]",
          "name": "_arr",
          "type": "uint256[]"
        }
      ],
      "name": "h",
      "outputs": [],
      "stateMutability": "nonpayable",
      "type": "function"
    }
  ],
  "bytecode": "0x608060405234801561001057600080fd5b5061055c806100206000396000f3fe608060405234801561001057600080fd5b506004361061004c5760003560e01c806326121ff01461005157806340dcbb081461005b57806371e5ee5f14610077578063baf71609146100a7575b600080fd5b6100596100d7565b005b610075600480360381019061007091906101d4565b610127565b005b610091600480360381019061008c9190610257565b61012b565b60405161009e9190610293565b60405180910390f35b6100c160048036038101906100bc91906103fd565b61014f565b6040516100ce9190610504565b60405180910390f35b6100f7600060016002600060018152602001908152602001600020610156565b60006002600060018152602001908152602001600020905060006040518060200160405280600081525090505050565b5050565b6000818154811061013b57600080fd5b906000526020600020016000915090505481565b6060919050565b505050565b6000604051905090565b600080fd5b600080fd5b600080fd5b600080fd5b600080fd5b60008083601f8401126101945761019361016f565b5b8235905067ffffffffffffffff8111156101b1576101b0610174565b5b6020830191508360208202830111156101cd576101cc610179565b5b9250929050565b600080602083850312156101eb576101ea610165565b5b600083013567ffffffffffffffff8111156102095761020861016a565b5b6102158582860161017e565b92509250509250929050565b6000819050919050565b61023481610221565b811461023f57600080fd5b50565b6000813590506102518161022b565b92915050565b60006020828403121561026d5761026c610165565b5b600061027b84828501610242565b91505092915050565b61028d81610221565b82525050565b60006020820190506102a86000830184610284565b92915050565b6000601f19601f8301169050919050565b7f4e487b7100000000000000000000000000000000000000000000000000000000600052604160045260246000fd5b6102f7826102ae565b810181811067ffffffffffffffff82111715610316576103156102bf565b5b80604052505050565b600061032961015b565b905061033582826102ee565b919050565b600067ffffffffffffffff821115610355576103546102bf565b5b602082029050602081019050919050565b60006103796103748461033a565b61031f565b9050808382526020820190506020840283018581111561039c5761039b610179565b5b835b818110156103c557806103b18882610242565b84526020840193505060208101905061039e565b5050509392505050565b600082601f8301126103e4576103e361016f565b5b81356103f4848260208601610366565b91505092915050565b60006020828403121561041357610412610165565b5b600082013567ffffffffffffffff8111156104315761043061016a565b5b61043d848285016103cf565b91505092915050565b600081519050919050565b600082825260208201905092915050565b6000819050602082019050919050565b61047b81610221565b82525050565b600061048d8383610472565b60208301905092915050565b6000602082019050919050565b60006104b182610446565b6104bb8185610451565b93506104c683610462565b8060005b838110156104f75781516104de8882610481565b97506104e983610499565b9250506001810190506104ca565b5085935050505092915050565b6000602082019050818103600083015261051e81846104a6565b90509291505056fea2646970667358221220c668c1c74335b0a65646221776f65ee9972429dab478d19f5779e0efe6bbbed064736f6c634300080d0033",
  "linkReferences": {},
  "deployedLinkReferences": {}
}