{
  "_format": "hh-sol-artifact-1",
  "contractName": "GasGolf",
  "sourceName": "contracts/GasGolf.sol",
  "abi": [
    {
      "inputs": [
        {
          "internalType": "uint256[]",
          "name": "nums",
          "type": "uint256[]"
        }
      ],
      "name": "sumIfEvenAndLessThan99",
      "outputs": [],
      "stateMutability": "nonpayable",
      "type": "function"
    },
    {
      "inputs": [],
      "name": "total",
      "outputs": [
        {
          "internalType": "uint256",
          "name": "",
          "type": "uint256"
        }
      ],
      "stateMutability": "view",
      "type": "function"
    }
  ],
  "bytecode": "0x608060405234801561001057600080fd5b50610336806100206000396000f3fe608060405234801561001057600080fd5b50600436106100365760003560e01c80632ddbd13a1461003b578063c9762ec214610059575b600080fd5b610043610075565b6040516100509190610115565b60405180910390f35b610073600480360381019061006e919061019f565b61007b565b005b60005481565b600080549050600083839050905060005b818110156100ee5760008585838181106100a9576100a86101ec565b5b90506020020135905060006002826100c1919061024a565b1480156100ce5750606381105b156100e25780846100df91906102aa565b93505b8160010191505061008c565b508160008190555050505050565b6000819050919050565b61010f816100fc565b82525050565b600060208201905061012a6000830184610106565b92915050565b600080fd5b600080fd5b600080fd5b600080fd5b600080fd5b60008083601f84011261015f5761015e61013a565b5b8235905067ffffffffffffffff81111561017c5761017b61013f565b5b60208301915083602082028301111561019857610197610144565b5b9250929050565b600080602083850312156101b6576101b5610130565b5b600083013567ffffffffffffffff8111156101d4576101d3610135565b5b6101e085828601610149565b92509250509250929050565b7f4e487b7100000000000000000000000000000000000000000000000000000000600052603260045260246000fd5b7f4e487b7100000000000000000000000000000000000000000000000000000000600052601260045260246000fd5b6000610255826100fc565b9150610260836100fc565b9250826102705761026f61021b565b5b828206905092915050565b7f4e487b7100000000000000000000000000000000000000000000000000000000600052601160045260246000fd5b60006102b5826100fc565b91506102c0836100fc565b9250827fffffffffffffffffffffffffffffffffffffffffffffffffffffffffffffffff038211156102f5576102f461027b565b5b82820190509291505056fea26469706673582212208e34ff6977640295cd4b9aaa6bc793bbf46df9495b6cbe9bca9e7e5e7e13ef1864736f6c634300080d0033",
  "linkReferences": {},
  "deployedLinkReferences": {}
}