{
  "_format": "hh-sol-artifact-1",
  "contractName": "Bar",
  "sourceName": "contracts/TryCatch.sol",
  "abi": [
    {
      "inputs": [],
      "stateMutability": "nonpayable",
      "type": "constructor"
    },
    {
      "anonymous": false,
      "inputs": [
        {
          "indexed": false,
          "internalType": "string",
          "name": "message",
          "type": "string"
        }
      ],
      "name": "Log",
      "type": "event"
    },
    {
      "anonymous": false,
      "inputs": [
        {
          "indexed": false,
          "internalType": "bytes",
          "name": "data",
          "type": "bytes"
        }
      ],
      "name": "LogBytes",
      "type": "event"
    },
    {
      "inputs": [],
      "name": "foo",
      "outputs": [
        {
          "internalType": "contract Foo",
          "name": "",
          "type": "address"
        }
      ],
      "stateMutability": "view",
      "type": "function"
    },
    {
      "inputs": [
        {
          "internalType": "uint256",
          "name": "_i",
          "type": "uint256"
        }
      ],
      "name": "tryCatchExternalCall",
      "outputs": [],
      "stateMutability": "nonpayable",
      "type": "function"
    },
    {
      "inputs": [
        {
          "internalType": "address",
          "name": "_owner",
          "type": "address"
        }
      ],
      "name": "tryCatchNewContract",
      "outputs": [],
      "stateMutability": "nonpayable",
      "type": "function"
    }
  ],
  "bytecode": "0x608060405234801561001057600080fd5b503360405161001e90610089565b61002891906100d7565b604051809103906000f080158015610044573d6000803e3d6000fd5b506000806101000a81548173ffffffffffffffffffffffffffffffffffffffff021916908373ffffffffffffffffffffffffffffffffffffffff1602179055506100f2565b6105bf806110d083390190565b600073ffffffffffffffffffffffffffffffffffffffff82169050919050565b60006100c182610096565b9050919050565b6100d1816100b6565b82525050565b60006020820190506100ec60008301846100c8565b92915050565b610fcf806101016000396000f3fe60806040523480156200001157600080fd5b5060043610620000465760003560e01c806377bdab83146200004b578063933ac084146200006b578063c2985578146200008b575b600080fd5b620000696004803603810190620000639190620003ca565b620000ad565b005b62000089600480360381019062000083919062000437565b62000202565b005b620000956200031f565b604051620000a49190620004d4565b60405180910390f35b80604051620000bc9062000343565b620000c8919062000502565b604051809103906000f08015620000dc5760015b620001c657620000eb6200052c565b806308c379a0036200014f575062000102620005c7565b806200010f575062000151565b7fcf34ef537ac33ee1ac626ca1587a0a7e8e51561e5514f8cb36afa1c5102b3bab81604051620001409190620006f5565b60405180910390a150620001c0565b505b3d80600081146200017f576040519150601f19603f3d011682016040523d82523d6000602084013e62000184565b606091505b507f532fd6ea96cfb78bb46e09279a26828b8b493de1a2b8b1ee1face527978a15a581604051620001b6919062000776565b60405180910390a1505b620001ff565b7fcf34ef537ac33ee1ac626ca1587a0a7e8e51561e5514f8cb36afa1c5102b3bab604051620001f590620007ea565b60405180910390a1505b50565b60008054906101000a900473ffffffffffffffffffffffffffffffffffffffff1673ffffffffffffffffffffffffffffffffffffffff1663a9bf5633826040518263ffffffff1660e01b81526004016200025d91906200081d565b600060405180830381865afa9250505080156200029f57506040513d6000823e3d601f19601f820116820180604052508101906200029c919062000917565b60015b620002e1577fcf34ef537ac33ee1ac626ca1587a0a7e8e51561e5514f8cb36afa1c5102b3bab604051620002d390620009b8565b60405180910390a16200031c565b7fcf34ef537ac33ee1ac626ca1587a0a7e8e51561e5514f8cb36afa1c5102b3bab81604051620003129190620006f5565b60405180910390a1505b50565b60008054906101000a900473ffffffffffffffffffffffffffffffffffffffff1681565b6105bf80620009db83390190565b6000604051905090565b600080fd5b600080fd5b600073ffffffffffffffffffffffffffffffffffffffff82169050919050565b6000620003928262000365565b9050919050565b620003a48162000385565b8114620003b057600080fd5b50565b600081359050620003c48162000399565b92915050565b600060208284031215620003e357620003e26200035b565b5b6000620003f384828501620003b3565b91505092915050565b6000819050919050565b6200041181620003fc565b81146200041d57600080fd5b50565b600081359050620004318162000406565b92915050565b60006020828403121562000450576200044f6200035b565b5b6000620004608482850162000420565b91505092915050565b6000819050919050565b6000620004946200048e620004888462000365565b62000469565b62000365565b9050919050565b6000620004a88262000473565b9050919050565b6000620004bc826200049b565b9050919050565b620004ce81620004af565b82525050565b6000602082019050620004eb6000830184620004c3565b92915050565b620004fc8162000385565b82525050565b6000602082019050620005196000830184620004f1565b92915050565b60008160e01c9050919050565b600060033d11156200054e5760046000803e6200054b6000516200051f565b90505b90565b6000601f19601f8301169050919050565b7f4e487b7100000000000000000000000000000000000000000000000000000000600052604160045260246000fd5b6200059c8262000551565b810181811067ffffffffffffffff82111715620005be57620005bd62000562565b5b80604052505050565b600060443d106200065f57620005dc62000351565b60043d036004823e80513d602482011167ffffffffffffffff82111715620006065750506200065f565b808201805167ffffffffffffffff8111156200062657505050506200065f565b80602083010160043d038501811115620006455750505050506200065f565b620006568260200185018662000591565b82955050505050505b90565b600081519050919050565b600082825260208201905092915050565b60005b838110156200069e57808201518184015260208101905062000681565b83811115620006ae576000848401525b50505050565b6000620006c18262000662565b620006cd81856200066d565b9350620006df8185602086016200067e565b620006ea8162000551565b840191505092915050565b60006020820190508181036000830152620007118184620006b4565b905092915050565b600081519050919050565b600082825260208201905092915050565b6000620007428262000719565b6200074e818562000724565b9350620007608185602086016200067e565b6200076b8162000551565b840191505092915050565b6000602082019050818103600083015262000792818462000735565b905092915050565b7f466f6f2063726561746564000000000000000000000000000000000000000000600082015250565b6000620007d2600b836200066d565b9150620007df826200079a565b602082019050919050565b600060208201905081810360008301526200080581620007c3565b9050919050565b6200081781620003fc565b82525050565b60006020820190506200083460008301846200080c565b92915050565b600080fd5b600080fd5b60006200085062000351565b90506200085e828262000591565b919050565b600067ffffffffffffffff82111562000881576200088062000562565b5b6200088c8262000551565b9050602081019050919050565b6000620008b0620008aa8462000863565b62000844565b905082815260208101848484011115620008cf57620008ce6200083f565b5b620008dc8482856200067e565b509392505050565b600082601f830112620008fc57620008fb6200083a565b5b81516200090e84826020860162000899565b91505092915050565b60006020828403121562000930576200092f6200035b565b5b600082015167ffffffffffffffff81111562000951576200095062000360565b5b6200095f84828501620008e4565b91505092915050565b7f65787465726e616c2063616c6c206661696c6564000000000000000000000000600082015250565b6000620009a06014836200066d565b9150620009ad8262000968565b602082019050919050565b60006020820190508181036000830152620009d38162000991565b905091905056fe608060405234801561001057600080fd5b506040516105bf3803806105bf83398181016040528101906100329190610187565b600073ffffffffffffffffffffffffffffffffffffffff168173ffffffffffffffffffffffffffffffffffffffff16036100a1576040517f08c379a000000000000000000000000000000000000000000000000000000000815260040161009890610211565b60405180910390fd5b600173ffffffffffffffffffffffffffffffffffffffff168173ffffffffffffffffffffffffffffffffffffffff16036100de576100dd610231565b5b806000806101000a81548173ffffffffffffffffffffffffffffffffffffffff021916908373ffffffffffffffffffffffffffffffffffffffff16021790555050610260565b600080fd5b600073ffffffffffffffffffffffffffffffffffffffff82169050919050565b600061015482610129565b9050919050565b61016481610149565b811461016f57600080fd5b50565b6000815190506101818161015b565b92915050565b60006020828403121561019d5761019c610124565b5b60006101ab84828501610172565b91505092915050565b600082825260208201905092915050565b7f696e76616c696420616464726573730000000000000000000000000000000000600082015250565b60006101fb600f836101b4565b9150610206826101c5565b602082019050919050565b6000602082019050818103600083015261022a816101ee565b9050919050565b7f4e487b7100000000000000000000000000000000000000000000000000000000600052600160045260246000fd5b6103508061026f6000396000f3fe608060405234801561001057600080fd5b50600436106100365760003560e01c80638da5cb5b1461003b578063a9bf563314610059575b600080fd5b610043610089565b6040516100509190610170565b60405180910390f35b610073600480360381019061006e91906101c6565b6100ad565b604051610080919061028c565b60405180910390f35b60008054906101000a900473ffffffffffffffffffffffffffffffffffffffff1681565b6060600082036100f2576040517f08c379a00000000000000000000000000000000000000000000000000000000081526004016100e9906102fa565b60405180910390fd5b6040518060400160405280601281526020017f6d792066756e63207761732063616c6c656400000000000000000000000000008152509050919050565b600073ffffffffffffffffffffffffffffffffffffffff82169050919050565b600061015a8261012f565b9050919050565b61016a8161014f565b82525050565b60006020820190506101856000830184610161565b92915050565b600080fd5b6000819050919050565b6101a381610190565b81146101ae57600080fd5b50565b6000813590506101c08161019a565b92915050565b6000602082840312156101dc576101db61018b565b5b60006101ea848285016101b1565b91505092915050565b600081519050919050565b600082825260208201905092915050565b60005b8381101561022d578082015181840152602081019050610212565b8381111561023c576000848401525b50505050565b6000601f19601f8301169050919050565b600061025e826101f3565b61026881856101fe565b935061027881856020860161020f565b61028181610242565b840191505092915050565b600060208201905081810360008301526102a68184610253565b905092915050565b7f72657175697265206661696c6564000000000000000000000000000000000000600082015250565b60006102e4600e836101fe565b91506102ef826102ae565b602082019050919050565b60006020820190508181036000830152610313816102d7565b905091905056fea26469706673582212202ad5c72cd2644fb22153db0d213035004f8ab435a526e557a599b88b71db0b2164736f6c634300080d0033a2646970667358221220d4a2245c6ce98e10619cbdf084e817535f1ad6980bdb6d1f20c1bb352b04aa4164736f6c634300080d0033608060405234801561001057600080fd5b506040516105bf3803806105bf83398181016040528101906100329190610187565b600073ffffffffffffffffffffffffffffffffffffffff168173ffffffffffffffffffffffffffffffffffffffff16036100a1576040517f08c379a000000000000000000000000000000000000000000000000000000000815260040161009890610211565b60405180910390fd5b600173ffffffffffffffffffffffffffffffffffffffff168173ffffffffffffffffffffffffffffffffffffffff16036100de576100dd610231565b5b806000806101000a81548173ffffffffffffffffffffffffffffffffffffffff021916908373ffffffffffffffffffffffffffffffffffffffff16021790555050610260565b600080fd5b600073ffffffffffffffffffffffffffffffffffffffff82169050919050565b600061015482610129565b9050919050565b61016481610149565b811461016f57600080fd5b50565b6000815190506101818161015b565b92915050565b60006020828403121561019d5761019c610124565b5b60006101ab84828501610172565b91505092915050565b600082825260208201905092915050565b7f696e76616c696420616464726573730000000000000000000000000000000000600082015250565b60006101fb600f836101b4565b9150610206826101c5565b602082019050919050565b6000602082019050818103600083015261022a816101ee565b9050919050565b7f4e487b7100000000000000000000000000000000000000000000000000000000600052600160045260246000fd5b6103508061026f6000396000f3fe608060405234801561001057600080fd5b50600436106100365760003560e01c80638da5cb5b1461003b578063a9bf563314610059575b600080fd5b610043610089565b6040516100509190610170565b60405180910390f35b610073600480360381019061006e91906101c6565b6100ad565b604051610080919061028c565b60405180910390f35b60008054906101000a900473ffffffffffffffffffffffffffffffffffffffff1681565b6060600082036100f2576040517f08c379a00000000000000000000000000000000000000000000000000000000081526004016100e9906102fa565b60405180910390fd5b6040518060400160405280601281526020017f6d792066756e63207761732063616c6c656400000000000000000000000000008152509050919050565b600073ffffffffffffffffffffffffffffffffffffffff82169050919050565b600061015a8261012f565b9050919050565b61016a8161014f565b82525050565b60006020820190506101856000830184610161565b92915050565b600080fd5b6000819050919050565b6101a381610190565b81146101ae57600080fd5b50565b6000813590506101c08161019a565b92915050565b6000602082840312156101dc576101db61018b565b5b60006101ea848285016101b1565b91505092915050565b600081519050919050565b600082825260208201905092915050565b60005b8381101561022d578082015181840152602081019050610212565b8381111561023c576000848401525b50505050565b6000601f19601f8301169050919050565b600061025e826101f3565b61026881856101fe565b935061027881856020860161020f565b61028181610242565b840191505092915050565b600060208201905081810360008301526102a68184610253565b905092915050565b7f72657175697265206661696c6564000000000000000000000000000000000000600082015250565b60006102e4600e836101fe565b91506102ef826102ae565b602082019050919050565b60006020820190508181036000830152610313816102d7565b905091905056fea26469706673582212202ad5c72cd2644fb22153db0d213035004f8ab435a526e557a599b88b71db0b2164736f6c634300080d0033",
  "linkReferences": {},
  "deployedLinkReferences": {}
}