{
  "_format": "hh-sol-artifact-1",
  "contractName": "Foo",
  "sourceName": "contracts/TryCatch.sol",
  "abi": [
    {
      "inputs": [
        {
          "internalType": "address",
          "name": "_owner",
          "type": "address"
        }
      ],
      "stateMutability": "nonpayable",
      "type": "constructor"
    },
    {
      "inputs": [
        {
          "internalType": "uint256",
          "name": "x",
          "type": "uint256"
        }
      ],
      "name": "myFunc",
      "outputs": [
        {
          "internalType": "string",
          "name": "",
          "type": "string"
        }
      ],
      "stateMutability": "pure",
      "type": "function"
    },
    {
      "inputs": [],
      "name": "owner",
      "outputs": [
        {
          "internalType": "address",
          "name": "",
          "type": "address"
        }
      ],
      "stateMutability": "view",
      "type": "function"
    }
  ],
  "bytecode": "0x608060405234801561001057600080fd5b506040516105bf3803806105bf83398181016040528101906100329190610187565b600073ffffffffffffffffffffffffffffffffffffffff168173ffffffffffffffffffffffffffffffffffffffff16036100a1576040517f08c379a000000000000000000000000000000000000000000000000000000000815260040161009890610211565b60405180910390fd5b600173ffffffffffffffffffffffffffffffffffffffff168173ffffffffffffffffffffffffffffffffffffffff16036100de576100dd610231565b5b806000806101000a81548173ffffffffffffffffffffffffffffffffffffffff021916908373ffffffffffffffffffffffffffffffffffffffff16021790555050610260565b600080fd5b600073ffffffffffffffffffffffffffffffffffffffff82169050919050565b600061015482610129565b9050919050565b61016481610149565b811461016f57600080fd5b50565b6000815190506101818161015b565b92915050565b60006020828403121561019d5761019c610124565b5b60006101ab84828501610172565b91505092915050565b600082825260208201905092915050565b7f696e76616c696420616464726573730000000000000000000000000000000000600082015250565b60006101fb600f836101b4565b9150610206826101c5565b602082019050919050565b6000602082019050818103600083015261022a816101ee565b9050919050565b7f4e487b7100000000000000000000000000000000000000000000000000000000600052600160045260246000fd5b6103508061026f6000396000f3fe608060405234801561001057600080fd5b50600436106100365760003560e01c80638da5cb5b1461003b578063a9bf563314610059575b600080fd5b610043610089565b6040516100509190610170565b60405180910390f35b610073600480360381019061006e91906101c6565b6100ad565b604051610080919061028c565b60405180910390f35b60008054906101000a900473ffffffffffffffffffffffffffffffffffffffff1681565b6060600082036100f2576040517f08c379a00000000000000000000000000000000000000000000000000000000081526004016100e9906102fa565b60405180910390fd5b6040518060400160405280601281526020017f6d792066756e63207761732063616c6c656400000000000000000000000000008152509050919050565b600073ffffffffffffffffffffffffffffffffffffffff82169050919050565b600061015a8261012f565b9050919050565b61016a8161014f565b82525050565b60006020820190506101856000830184610161565b92915050565b600080fd5b6000819050919050565b6101a381610190565b81146101ae57600080fd5b50565b6000813590506101c08161019a565b92915050565b6000602082840312156101dc576101db61018b565b5b60006101ea848285016101b1565b91505092915050565b600081519050919050565b600082825260208201905092915050565b60005b8381101561022d578082015181840152602081019050610212565b8381111561023c576000848401525b50505050565b6000601f19601f8301169050919050565b600061025e826101f3565b61026881856101fe565b935061027881856020860161020f565b61028181610242565b840191505092915050565b600060208201905081810360008301526102a68184610253565b905092915050565b7f72657175697265206661696c6564000000000000000000000000000000000000600082015250565b60006102e4600e836101fe565b91506102ef826102ae565b602082019050919050565b60006020820190508181036000830152610313816102d7565b905091905056fea26469706673582212202ad5c72cd2644fb22153db0d213035004f8ab435a526e557a599b88b71db0b2164736f6c634300080d0033",
  "linkReferences": {},
  "deployedLinkReferences": {}
}