{
  "_format": "hh-sol-artifact-1",
  "contractName": "Account",
  "sourceName": "contracts/Account.sol",
  "abi": [
    {
      "inputs": [],
      "name": "MAX_UINT",
      "outputs": [
        {
          "internalType": "uint256",
          "name": "",
          "type": "uint256"
        }
      ],
      "stateMutability": "view",
      "type": "function"
    },
    {
      "inputs": [],
      "name": "balance",
      "outputs": [
        {
          "internalType": "uint256",
          "name": "",
          "type": "uint256"
        }
      ],
      "stateMutability": "view",
      "type": "function"
    },
    {
      "inputs": [
        {
          "internalType": "uint256",
          "name": "_amount",
          "type": "uint256"
        }
      ],
      "name": "deposit",
      "outputs": [],
      "stateMutability": "nonpayable",
      "type": "function"
    },
    {
      "inputs": [
        {
          "internalType": "uint256",
          "name": "_amount",
          "type": "uint256"
        }
      ],
      "name": "withdraw",
      "outputs": [],
      "stateMutability": "nonpayable",
      "type": "function"
    }
  ],
  "bytecode": "0x608060405234801561001057600080fd5b506104c1806100206000396000f3fe608060405234801561001057600080fd5b506004361061004c5760003560e01c80632e1a7d4d14610051578063b69ef8a81461006d578063b6b55f251461008b578063e5b5019a146100a7575b600080fd5b61006b60048036038101906100669190610263565b6100c5565b005b610075610184565b604051610082919061029f565b60405180910390f35b6100a560048036038101906100a09190610263565b61018a565b005b6100af610204565b6040516100bc919061029f565b60405180910390f35b600080549050816000541015610110576040517f08c379a000000000000000000000000000000000000000000000000000000000815260040161010790610317565b60405180910390fd5b816000541015610155576040517f08c379a000000000000000000000000000000000000000000000000000000000815260040161014c90610317565b60405180910390fd5b816000808282546101669190610366565b925050819055508060005411156101805761017f61039a565b5b5050565b60005481565b6000805490506000826000546101a091906103c9565b9050818110156101e5576040517f08c379a00000000000000000000000000000000000000000000000000000000081526004016101dc9061046b565b60405180910390fd5b806000819055508160005410156101ff576101fe61039a565b5b505050565b7fffffffffffffffffffffffffffffffffffffffffffffffffffffffffffffffff81565b600080fd5b6000819050919050565b6102408161022d565b811461024b57600080fd5b50565b60008135905061025d81610237565b92915050565b60006020828403121561027957610278610228565b5b60006102878482850161024e565b91505092915050565b6102998161022d565b82525050565b60006020820190506102b46000830184610290565b92915050565b600082825260208201905092915050565b7f556e646572666c6f770000000000000000000000000000000000000000000000600082015250565b60006103016009836102ba565b915061030c826102cb565b602082019050919050565b60006020820190508181036000830152610330816102f4565b9050919050565b7f4e487b7100000000000000000000000000000000000000000000000000000000600052601160045260246000fd5b60006103718261022d565b915061037c8361022d565b92508282101561038f5761038e610337565b5b828203905092915050565b7f4e487b7100000000000000000000000000000000000000000000000000000000600052600160045260246000fd5b60006103d48261022d565b91506103df8361022d565b9250827fffffffffffffffffffffffffffffffffffffffffffffffffffffffffffffffff0382111561041457610413610337565b5b828201905092915050565b7f4f766572666c6f77000000000000000000000000000000000000000000000000600082015250565b60006104556008836102ba565b91506104608261041f565b602082019050919050565b6000602082019050818103600083015261048481610448565b905091905056fea2646970667358221220065af82e2de96dba6e535d6e4bc3ef36c8ed73587ab95f0f014b75e5b8e0cc0064736f6c634300080d0033",
  "linkReferences": {},
  "deployedLinkReferences": {}
}