{
  "_format": "hh-sol-artifact-1",
  "contractName": "AbiEncode",
  "sourceName": "contracts/AbiEncode.sol",
  "abi": [
    {
      "inputs": [
        {
          "internalType": "address",
          "name": "to",
          "type": "address"
        },
        {
          "internalType": "uint256",
          "name": "amount",
          "type": "uint256"
        }
      ],
      "name": "encodeCall",
      "outputs": [
        {
          "internalType": "bytes",
          "name": "",
          "type": "bytes"
        }
      ],
      "stateMutability": "pure",
      "type": "function"
    },
    {
      "inputs": [
        {
          "internalType": "address",
          "name": "to",
          "type": "address"
        },
        {
          "internalType": "uint256",
          "name": "amount",
          "type": "uint256"
        }
      ],
      "name": "encodeWithSelector",
      "outputs": [
        {
          "internalType": "bytes",
          "name": "",
          "type": "bytes"
        }
      ],
      "stateMutability": "pure",
      "type": "function"
    },
    {
      "inputs": [
        {
          "internalType": "address",
          "name": "to",
          "type": "address"
        },
        {
          "internalType": "uint256",
          "name": "amount",
          "type": "uint256"
        }
      ],
      "name": "encodeWithSignature",
      "outputs": [
        {
          "internalType": "bytes",
          "name": "",
          "type": "bytes"
        }
      ],
      "stateMutability": "pure",
      "type": "function"
    },
    {
      "inputs": [
        {
          "internalType": "address",
          "name": "_contract",
          "type": "address"
        },
        {
          "internalType": "bytes",
          "name": "data",
          "type": "bytes"
        }
      ],
      "name": "test",
      "outputs": [],
      "stateMutability": "nonpayable",
      "type": "function"
    }
  ],
  "bytecode": "0x608060405234801561001057600080fd5b506106e0806100206000396000f3fe608060405234801561001057600080fd5b506004361061004c5760003560e01c806325adff1c146100515780635fc6ac0e146100815780637e3b06fb146100b157806393e01418146100e1575b600080fd5b61006b600480360381019061006691906103ce565b6100fd565b60405161007891906104a7565b60405180910390f35b61009b600480360381019061009691906103ce565b61015f565b6040516100a891906104a7565b60405180910390f35b6100cb60048036038101906100c691906103ce565b6101e1565b6040516100d891906104a7565b60405180910390f35b6100fb60048036038101906100f6919061052e565b61027b565b005b606082826040516024016101129291906105ac565b60405160208183030381529060405263a9059cbb60e01b6020820180517bffffffffffffffffffffffffffffffffffffffffffffffffffffffff8381831617835250505050905092915050565b606063a9059cbb60e01b838360405160240161017c9291906105ac565b604051602081830303815290604052907bffffffffffffffffffffffffffffffffffffffffffffffffffffffff19166020820180517bffffffffffffffffffffffffffffffffffffffffffffffffffffffff8381831617835250505050905092915050565b606082826040516024016101f69291906105ac565b6040516020818303038152906040527fa9059cbb000000000000000000000000000000000000000000000000000000007bffffffffffffffffffffffffffffffffffffffffffffffffffffffff19166020820180517bffffffffffffffffffffffffffffffffffffffffffffffffffffffff8381831617835250505050905092915050565b60008373ffffffffffffffffffffffffffffffffffffffff1683836040516102a4929190610614565b6000604051808303816000865af19150503d80600081146102e1576040519150601f19603f3d011682016040523d82523d6000602084013e6102e6565b606091505b505090508061032a576040517f08c379a00000000000000000000000000000000000000000000000000000000081526004016103219061068a565b60405180910390fd5b50505050565b600080fd5b600080fd5b600073ffffffffffffffffffffffffffffffffffffffff82169050919050565b60006103658261033a565b9050919050565b6103758161035a565b811461038057600080fd5b50565b6000813590506103928161036c565b92915050565b6000819050919050565b6103ab81610398565b81146103b657600080fd5b50565b6000813590506103c8816103a2565b92915050565b600080604083850312156103e5576103e4610330565b5b60006103f385828601610383565b9250506020610404858286016103b9565b9150509250929050565b600081519050919050565b600082825260208201905092915050565b60005b8381101561044857808201518184015260208101905061042d565b83811115610457576000848401525b50505050565b6000601f19601f8301169050919050565b60006104798261040e565b6104838185610419565b935061049381856020860161042a565b61049c8161045d565b840191505092915050565b600060208201905081810360008301526104c1818461046e565b905092915050565b600080fd5b600080fd5b600080fd5b60008083601f8401126104ee576104ed6104c9565b5b8235905067ffffffffffffffff81111561050b5761050a6104ce565b5b602083019150836001820283011115610527576105266104d3565b5b9250929050565b60008060006040848603121561054757610546610330565b5b600061055586828701610383565b935050602084013567ffffffffffffffff81111561057657610575610335565b5b610582868287016104d8565b92509250509250925092565b6105978161035a565b82525050565b6105a681610398565b82525050565b60006040820190506105c1600083018561058e565b6105ce602083018461059d565b9392505050565b600081905092915050565b82818337600083830152505050565b60006105fb83856105d5565b93506106088385846105e0565b82840190509392505050565b60006106218284866105ef565b91508190509392505050565b600082825260208201905092915050565b7f63616c6c206661696c6564000000000000000000000000000000000000000000600082015250565b6000610674600b8361062d565b915061067f8261063e565b602082019050919050565b600060208201905081810360008301526106a381610667565b905091905056fea26469706673582212203e4f15edbd9b8cc39a8d7619b97401d8d8bcb75078fefb1657817c245bf0d5ba64736f6c634300080d0033",
  "linkReferences": {},
  "deployedLinkReferences": {}
}