{
  "_format": "hh-sol-artifact-1",
  "contractName": "Token",
  "sourceName": "contracts/AbiEncode.sol",
  "abi": [
    {
      "inputs": [
        {
          "internalType": "address",
          "name": "",
          "type": "address"
        },
        {
          "internalType": "uint256",
          "name": "",
          "type": "uint256"
        }
      ],
      "name": "transfer",
      "outputs": [],
      "stateMutability": "nonpayable",
      "type": "function"
    }
  ],
  "bytecode": "0x608060405234801561001057600080fd5b5061015f806100206000396000f3fe608060405234801561001057600080fd5b506004361061002b5760003560e01c8063a9059cbb14610030575b600080fd5b61004a600480360381019061004591906100e9565b61004c565b005b5050565b600080fd5b600073ffffffffffffffffffffffffffffffffffffffff82169050919050565b600061008082610055565b9050919050565b61009081610075565b811461009b57600080fd5b50565b6000813590506100ad81610087565b92915050565b6000819050919050565b6100c6816100b3565b81146100d157600080fd5b50565b6000813590506100e3816100bd565b92915050565b60008060408385031215610100576100ff610050565b5b600061010e8582860161009e565b925050602061011f858286016100d4565b915050925092905056fea264697066735822122007a4a2ba0bdedd40fe6a721328fc4fcea87e2d9297678ae2fb930f72cb0b26aa64736f6c634300080d0033",
  "linkReferences": {},
  "deployedLinkReferences": {}
}