{
  "_format": "hh-sol-artifact-1",
  "contractName": "Todos",
  "sourceName": "contracts/Todo1.sol",
  "abi": [
    {
      "inputs": [
        {
          "internalType": "string",
          "name": "_text",
          "type": "string"
        }
      ],
      "name": "create",
      "outputs": [],
      "stateMutability": "nonpayable",
      "type": "function"
    },
    {
      "inputs": [
        {
          "internalType": "uint256",
          "name": "_index",
          "type": "uint256"
        }
      ],
      "name": "get",
      "outputs": [
        {
          "internalType": "string",
          "name": "text",
          "type": "string"
        },
        {
          "internalType": "bool",
          "name": "completed",
          "type": "bool"
        }
      ],
      "stateMutability": "view",
      "type": "function"
    },
    {
      "inputs": [
        {
          "internalType": "uint256",
          "name": "",
          "type": "uint256"
        }
      ],
      "name": "todos",
      "outputs": [
        {
          "internalType": "string",
          "name": "text",
          "type": "string"
        },
        {
          "internalType": "bool",
          "name": "completed",
          "type": "bool"
        }
      ],
      "stateMutability": "view",
      "type": "function"
    },
    {
      "inputs": [
        {
          "internalType": "uint256",
          "name": "_index",
          "type": "uint256"
        }
      ],
      "name": "toggleCompleted",
      "outputs": [],
      "stateMutability": "nonpayable",
      "type": "function"
    },
    {
      "inputs": [
        {
          "internalType": "uint256",
          "name": "_index",
          "type": "uint256"
        },
        {
          "internalType": "string",
          "name": "_text",
          "type": "string"
        }
      ],
      "name": "updateText",
      "outputs": [],
      "stateMutability": "nonpayable",
      "type": "function"
    }
  ],
  "bytecode": "0x608060405234801561001057600080fd5b50610a04806100206000396000f3fe608060405234801561001057600080fd5b50600436106100575760003560e01c8063455f50241461005c5780639507d39a14610078578063b6a46b3b146100a9578063bc8bc2b4146100c5578063cd111614146100f6575b600080fd5b6100766004803603810190610071919061071c565b610112565b005b610092600480360381019061008d919061071c565b610169565b6040516100a09291906107fd565b60405180910390f35b6100c360048036038101906100be9190610892565b61023e565b005b6100df60048036038101906100da919061071c565b61048f565b6040516100ed9291906107fd565b60405180910390f35b610110600480360381019061010b91906108df565b610558565b005b60008082815481106101275761012661093f565b5b906000526020600020906002020190508060010160009054906101000a900460ff16158160010160006101000a81548160ff0219169083151502179055505050565b6060600080600084815481106101825761018161093f565b5b90600052602060002090600202019050806000018160010160009054906101000a900460ff168180546101b49061099d565b80601f01602080910402602001604051908101604052809291908181526020018280546101e09061099d565b801561022d5780601f106102025761010080835404028352916020019161022d565b820191906000526020600020905b81548152906001019060200180831161021057829003601f168201915b505050505091509250925050915091565b6000604051806040016040528084848080601f016020809104026020016040519081016040528093929190818152602001838380828437600081840152601f19601f82011690508083019250505050505050815260200160001515815250908060018154018082558091505060019003906000526020600020906002020160009091909190915060008201518160000190805190602001906102e1929190610597565b5060208201518160010160006101000a81548160ff02191690831515021790555050506000604051806040016040528084848080601f016020809104026020016040519081016040528093929190818152602001838380828437600081840152601f19601f82011690508083019250505050505050815260200160001515815250908060018154018082558091505060019003906000526020600020906002020160009091909190915060008201518160000190805190602001906103a7929190610597565b5060208201518160010160006101000a81548160ff02191690831515021790555050506103d261061d565b82828080601f016020809104026020016040519081016040528093929190818152602001838380828437600081840152601f19601f82011690508083019250505050505050816000018190525060008190806001815401808255809150506001900390600052602060002090600202016000909190919091506000820151816000019080519060200190610467929190610597565b5060208201518160010160006101000a81548160ff0219169083151502179055505050505050565b6000818154811061049f57600080fd5b90600052602060002090600202016000915090508060000180546104c29061099d565b80601f01602080910402602001604051908101604052809291908181526020018280546104ee9061099d565b801561053b5780601f106105105761010080835404028352916020019161053b565b820191906000526020600020905b81548152906001019060200180831161051e57829003601f168201915b5050505050908060010160009054906101000a900460ff16905082565b600080848154811061056d5761056c61093f565b5b906000526020600020906002020190508282826000019190610590929190610639565b5050505050565b8280546105a39061099d565b90600052602060002090601f0160209004810192826105c5576000855561060c565b82601f106105de57805160ff191683800117855561060c565b8280016001018555821561060c579182015b8281111561060b5782518255916020019190600101906105f0565b5b50905061061991906106bf565b5090565b6040518060400160405280606081526020016000151581525090565b8280546106459061099d565b90600052602060002090601f01602090048101928261066757600085556106ae565b82601f1061068057803560ff19168380011785556106ae565b828001600101855582156106ae579182015b828111156106ad578235825591602001919060010190610692565b5b5090506106bb91906106bf565b5090565b5b808211156106d85760008160009055506001016106c0565b5090565b600080fd5b600080fd5b6000819050919050565b6106f9816106e6565b811461070457600080fd5b50565b600081359050610716816106f0565b92915050565b600060208284031215610732576107316106dc565b5b600061074084828501610707565b91505092915050565b600081519050919050565b600082825260208201905092915050565b60005b83811015610783578082015181840152602081019050610768565b83811115610792576000848401525b50505050565b6000601f19601f8301169050919050565b60006107b482610749565b6107be8185610754565b93506107ce818560208601610765565b6107d781610798565b840191505092915050565b60008115159050919050565b6107f7816107e2565b82525050565b6000604082019050818103600083015261081781856107a9565b905061082660208301846107ee565b9392505050565b600080fd5b600080fd5b600080fd5b60008083601f8401126108525761085161082d565b5b8235905067ffffffffffffffff81111561086f5761086e610832565b5b60208301915083600182028301111561088b5761088a610837565b5b9250929050565b600080602083850312156108a9576108a86106dc565b5b600083013567ffffffffffffffff8111156108c7576108c66106e1565b5b6108d38582860161083c565b92509250509250929050565b6000806000604084860312156108f8576108f76106dc565b5b600061090686828701610707565b935050602084013567ffffffffffffffff811115610927576109266106e1565b5b6109338682870161083c565b92509250509250925092565b7f4e487b7100000000000000000000000000000000000000000000000000000000600052603260045260246000fd5b7f4e487b7100000000000000000000000000000000000000000000000000000000600052602260045260246000fd5b600060028204905060018216806109b557607f821691505b6020821081036109c8576109c761096e565b5b5091905056fea26469706673582212209fd5f075cf3d7055ba02bbd0683a1b4e0137a2a5223ae1f3f5d646b531b930d564736f6c634300080d0033",
  "linkReferences": {},
  "deployedLinkReferences": {}
}