{
  "_format": "hh-sol-artifact-1",
  "contractName": "Lottery",
  "sourceName": "contracts/Lottery.sol",
  "abi": [
    {
      "inputs": [],
      "stateMutability": "nonpayable",
      "type": "constructor"
    },
    {
      "inputs": [],
      "name": "getBalance",
      "outputs": [
        {
          "internalType": "uint256",
          "name": "",
          "type": "uint256"
        }
      ],
      "stateMutability": "view",
      "type": "function"
    },
    {
      "inputs": [],
      "name": "manager",
      "outputs": [
        {
          "internalType": "address",
          "name": "",
          "type": "address"
        }
      ],
      "stateMutability": "view",
      "type": "function"
    },
    {
      "inputs": [],
      "name": "participate",
      "outputs": [],
      "stateMutability": "payable",
      "type": "function"
    },
    {
      "inputs": [],
      "name": "pickWinner",
      "outputs": [],
      "stateMutability": "nonpayable",
      "type": "function"
    },
    {
      "inputs": [
        {
          "internalType": "uint256",
          "name": "",
          "type": "uint256"
        }
      ],
      "name": "players",
      "outputs": [
        {
          "internalType": "address payable",
          "name": "",
          "type": "address"
        }
      ],
      "stateMutability": "view",
      "type": "function"
    },
    {
      "inputs": [],
      "name": "random",
      "outputs": [
        {
          "internalType": "uint256",
          "name": "",
          "type": "uint256"
        }
      ],
      "stateMutability": "view",
      "type": "function"
    },
    {
      "inputs": [],
      "name": "winner",
      "outputs": [
        {
          "internalType": "address payable",
          "name": "",
          "type": "address"
        }
      ],
      "stateMutability": "view",
      "type": "function"
    }
  ],
  "bytecode": "0x608060405234801561001057600080fd5b5033600160006101000a81548173ffffffffffffffffffffffffffffffffffffffff021916908373ffffffffffffffffffffffffffffffffffffffff160217905550610a65806100616000396000f3fe6080604052600436106100705760003560e01c80635ec01e4d1161004e5780635ec01e4d146100e2578063d11711a21461010d578063dfbf53ae14610117578063f71d96cb1461014257610070565b806312065fe014610075578063481c6a75146100a05780635d495aea146100cb575b600080fd5b34801561008157600080fd5b5061008a61017f565b6040516100979190610661565b60405180910390f35b3480156100ac57600080fd5b506100b5610217565b6040516100c291906106bd565b60405180910390f35b3480156100d757600080fd5b506100e061023d565b005b3480156100ee57600080fd5b506100f7610453565b6040516101049190610661565b60405180910390f35b61011561048d565b005b34801561012357600080fd5b5061012c61053c565b60405161013991906106f9565b60405180910390f35b34801561014e57600080fd5b5061016960048036038101906101649190610745565b610562565b60405161017691906106f9565b60405180910390f35b60003373ffffffffffffffffffffffffffffffffffffffff16600160009054906101000a900473ffffffffffffffffffffffffffffffffffffffff1673ffffffffffffffffffffffffffffffffffffffff1614610211576040517f08c379a0000000000000000000000000000000000000000000000000000000008152600401610208906107f5565b60405180910390fd5b47905090565b600160009054906101000a900473ffffffffffffffffffffffffffffffffffffffff1681565b3373ffffffffffffffffffffffffffffffffffffffff16600160009054906101000a900473ffffffffffffffffffffffffffffffffffffffff1673ffffffffffffffffffffffffffffffffffffffff16146102cd576040517f08c379a00000000000000000000000000000000000000000000000000000000081526004016102c49061083b565b60405180910390fd5b600360008054905010156102e057600080fd5b60006102ea610453565b905060008080549050826102fe919061088a565b905060008181548110610314576103136108bb565b5b9060005260206000200160009054906101000a900473ffffffffffffffffffffffffffffffffffffffff16600260006101000a81548173ffffffffffffffffffffffffffffffffffffffff021916908373ffffffffffffffffffffffffffffffffffffffff160217905550600260009054906101000a900473ffffffffffffffffffffffffffffffffffffffff1673ffffffffffffffffffffffffffffffffffffffff166108fc6103c361017f565b9081150290604051600060405180830381858888f193505050501580156103ee573d6000803e3d6000fd5b50600067ffffffffffffffff81111561040a576104096108ea565b5b6040519080825280602002602001820160405280156104385781602001602082028036833780820191505090505b506000908051906020019061044e9291906105a1565b505050565b6000444260008054905060405160200161046f9392919061093a565b6040516020818303038152906040528051906020012060001c905090565b6729a2241af62c000034146104d7576040517f08c379a00000000000000000000000000000000000000000000000000000000081526004016104ce90610a0f565b60405180910390fd5b6000339080600181540180825580915050600190039060005260206000200160009091909190916101000a81548173ffffffffffffffffffffffffffffffffffffffff021916908373ffffffffffffffffffffffffffffffffffffffff160217905550565b600260009054906101000a900473ffffffffffffffffffffffffffffffffffffffff1681565b6000818154811061057257600080fd5b906000526020600020016000915054906101000a900473ffffffffffffffffffffffffffffffffffffffff1681565b82805482825590600052602060002090810192821561061a579160200282015b828111156106195782518260006101000a81548173ffffffffffffffffffffffffffffffffffffffff021916908373ffffffffffffffffffffffffffffffffffffffff160217905550916020019190600101906105c1565b5b509050610627919061062b565b5090565b5b8082111561064457600081600090555060010161062c565b5090565b6000819050919050565b61065b81610648565b82525050565b60006020820190506106766000830184610652565b92915050565b600073ffffffffffffffffffffffffffffffffffffffff82169050919050565b60006106a78261067c565b9050919050565b6106b78161069c565b82525050565b60006020820190506106d260008301846106ae565b92915050565b60006106e38261067c565b9050919050565b6106f3816106d8565b82525050565b600060208201905061070e60008301846106ea565b92915050565b600080fd5b61072281610648565b811461072d57600080fd5b50565b60008135905061073f81610719565b92915050565b60006020828403121561075b5761075a610714565b5b600061076984828501610730565b91505092915050565b600082825260208201905092915050565b7f596f7520617265206e6f7420617574686f72697a656420746f2063616c6c207460008201527f6869732066756e6374696f6e0000000000000000000000000000000000000000602082015250565b60006107df602c83610772565b91506107ea82610783565b604082019050919050565b6000602082019050818103600083015261080e816107d2565b9050919050565b50565b6000610825600083610772565b915061083082610815565b600082019050919050565b6000602082019050818103600083015261085481610818565b9050919050565b7f4e487b7100000000000000000000000000000000000000000000000000000000600052601260045260246000fd5b600061089582610648565b91506108a083610648565b9250826108b0576108af61085b565b5b828206905092915050565b7f4e487b7100000000000000000000000000000000000000000000000000000000600052603260045260246000fd5b7f4e487b7100000000000000000000000000000000000000000000000000000000600052604160045260246000fd5b6000819050919050565b61093461092f82610648565b610919565b82525050565b60006109468286610923565b6020820191506109568285610923565b6020820191506109668284610923565b602082019150819050949350505050565b7f45687465722076616c7565206d7573742062652065786163746c79203320657460008201527f68657220746f20706172746963697061746520696e20746865206c6f7474657260208201527f7900000000000000000000000000000000000000000000000000000000000000604082015250565b60006109f9604183610772565b9150610a0482610977565b606082019050919050565b60006020820190508181036000830152610a28816109ec565b905091905056fea2646970667358221220323a41495219b735106e8e76996d27da46a3b45934136861bd47ba4a92e4215a64736f6c634300080d0033",
  "linkReferences": {},
  "deployedLinkReferences": {}
}