{
  "_format": "hh-sol-artifact-1",
  "contractName": "EtherWallet",
  "sourceName": "contracts/Applications/EtherWallet.sol",
  "abi": [
    {
      "inputs": [],
      "stateMutability": "nonpayable",
      "type": "constructor"
    },
    {
      "inputs": [],
      "name": "getBalance",
      "outputs": [
        {
          "internalType": "uint256",
          "name": "",
          "type": "uint256"
        }
      ],
      "stateMutability": "view",
      "type": "function"
    },
    {
      "inputs": [],
      "name": "locked",
      "outputs": [
        {
          "internalType": "bool",
          "name": "",
          "type": "bool"
        }
      ],
      "stateMutability": "view",
      "type": "function"
    },
    {
      "inputs": [],
      "name": "owner",
      "outputs": [
        {
          "internalType": "address payable",
          "name": "",
          "type": "address"
        }
      ],
      "stateMutability": "view",
      "type": "function"
    },
    {
      "inputs": [
        {
          "internalType": "uint256",
          "name": "_amount",
          "type": "uint256"
        }
      ],
      "name": "withdraw",
      "outputs": [],
      "stateMutability": "nonpayable",
      "type": "function"
    },
    {
      "stateMutability": "payable",
      "type": "receive"
    }
  ],
  "bytecode": "0x608060405234801561001057600080fd5b50336000806101000a81548173ffffffffffffffffffffffffffffffffffffffff021916908373ffffffffffffffffffffffffffffffffffffffff16021790555061071b806100606000396000f3fe6080604052600436106100435760003560e01c806312065fe01461004f5780632e1a7d4d1461007a5780638da5cb5b146100a3578063cf309012146100ce5761004a565b3661004a57005b600080fd5b34801561005b57600080fd5b506100646100f9565b60405161007191906103ea565b60405180910390f35b34801561008657600080fd5b506100a1600480360381019061009c9190610436565b610101565b005b3480156100af57600080fd5b506100b861039a565b6040516100c591906104a4565b60405180910390f35b3480156100da57600080fd5b506100e36103be565b6040516100f091906104da565b60405180910390f35b600047905090565b60008054906101000a900473ffffffffffffffffffffffffffffffffffffffff1673ffffffffffffffffffffffffffffffffffffffff163373ffffffffffffffffffffffffffffffffffffffff161461018f576040517f08c379a000000000000000000000000000000000000000000000000000000000815260040161018690610552565b60405180910390fd5b33600073ffffffffffffffffffffffffffffffffffffffff168173ffffffffffffffffffffffffffffffffffffffff16036101ff576040517f08c379a00000000000000000000000000000000000000000000000000000000081526004016101f6906105be565b60405180910390fd5b600173ffffffffffffffffffffffffffffffffffffffff168173ffffffffffffffffffffffffffffffffffffffff160361023c5761023b6105de565b5b600060149054906101000a900460ff161561028c576040517f08c379a000000000000000000000000000000000000000000000000000000000815260040161028390610659565b60405180910390fd5b6001600060146101000a81548160ff02191690831515021790555060008054906101000a900473ffffffffffffffffffffffffffffffffffffffff1673ffffffffffffffffffffffffffffffffffffffff163373ffffffffffffffffffffffffffffffffffffffff1614610335576040517f08c379a000000000000000000000000000000000000000000000000000000000815260040161032c906106c5565b60405180910390fd5b3373ffffffffffffffffffffffffffffffffffffffff166108fc839081150290604051600060405180830381858888f1935050505015801561037b573d6000803e3d6000fd5b5060008060146101000a81548160ff0219169083151502179055505050565b60008054906101000a900473ffffffffffffffffffffffffffffffffffffffff1681565b600060149054906101000a900460ff1681565b6000819050919050565b6103e4816103d1565b82525050565b60006020820190506103ff60008301846103db565b92915050565b600080fd5b610413816103d1565b811461041e57600080fd5b50565b6000813590506104308161040a565b92915050565b60006020828403121561044c5761044b610405565b5b600061045a84828501610421565b91505092915050565b600073ffffffffffffffffffffffffffffffffffffffff82169050919050565b600061048e82610463565b9050919050565b61049e81610483565b82525050565b60006020820190506104b96000830184610495565b92915050565b60008115159050919050565b6104d4816104bf565b82525050565b60006020820190506104ef60008301846104cb565b92915050565b600082825260208201905092915050565b7f4e6f74206f776e65720000000000000000000000000000000000000000000000600082015250565b600061053c6009836104f5565b915061054782610506565b602082019050919050565b6000602082019050818103600083015261056b8161052f565b9050919050565b7f4e6f742076616c69642061646472657373000000000000000000000000000000600082015250565b60006105a86011836104f5565b91506105b382610572565b602082019050919050565b600060208201905081810360008301526105d78161059b565b9050919050565b7f4e487b7100000000000000000000000000000000000000000000000000000000600052600160045260246000fd5b7f4e6f207265656e7472616e637900000000000000000000000000000000000000600082015250565b6000610643600d836104f5565b915061064e8261060d565b602082019050919050565b6000602082019050818103600083015261067281610636565b9050919050565b7f63616c6c6572206973206e6f74206f776e657200000000000000000000000000600082015250565b60006106af6013836104f5565b91506106ba82610679565b602082019050919050565b600060208201905081810360008301526106de816106a2565b905091905056fea2646970667358221220046972b8015413057dff892524922c06faa5b6a66db686bb0410997f43527f9164736f6c634300080d0033",
  "linkReferences": {},
  "deployedLinkReferences": {}
}