{
  "_format": "hh-sol-artifact-1",
  "contractName": "EtherUnits",
  "sourceName": "contracts/EtherUnits.sol",
  "abi": [
    {
      "inputs": [],
      "name": "isOneEther",
      "outputs": [
        {
          "internalType": "bool",
          "name": "",
          "type": "bool"
        }
      ],
      "stateMutability": "view",
      "type": "function"
    },
    {
      "inputs": [],
      "name": "isOneGwei",
      "outputs": [
        {
          "internalType": "bool",
          "name": "",
          "type": "bool"
        }
      ],
      "stateMutability": "view",
      "type": "function"
    },
    {
      "inputs": [],
      "name": "isOneWei",
      "outputs": [
        {
          "internalType": "bool",
          "name": "",
          "type": "bool"
        }
      ],
      "stateMutability": "view",
      "type": "function"
    },
    {
      "inputs": [],
      "name": "oneEther",
      "outputs": [
        {
          "internalType": "uint256",
          "name": "",
          "type": "uint256"
        }
      ],
      "stateMutability": "view",
      "type": "function"
    },
    {
      "inputs": [],
      "name": "oneWei",
      "outputs": [
        {
          "internalType": "uint256",
          "name": "",
          "type": "uint256"
        }
      ],
      "stateMutability": "view",
      "type": "function"
    }
  ],
  "bytecode": "0x6080604052600160005560018014600160006101000a81548160ff021916908315150217905550670de0b6b3a7640000600255670de0b6b3a76400008014600360006101000a81548160ff021916908315150217905550633b9aca008014600360016101000a81548160ff02191690831515021790555034801561008257600080fd5b506101d7806100926000396000f3fe608060405234801561001057600080fd5b50600436106100575760003560e01c806328dc556f1461005c578063481499c71461007a5780634fb2e0be14610098578063cf0f5d29146100b6578063d297a89f146100d4575b600080fd5b6100646100f2565b6040516100719190610152565b60405180910390f35b610082610105565b60405161008f9190610152565b60405180910390f35b6100a0610118565b6040516100ad9190610186565b60405180910390f35b6100be61011e565b6040516100cb9190610152565b60405180910390f35b6100dc610131565b6040516100e99190610186565b60405180910390f35b600160009054906101000a900460ff1681565b600360019054906101000a900460ff1681565b60005481565b600360009054906101000a900460ff1681565b60025481565b60008115159050919050565b61014c81610137565b82525050565b60006020820190506101676000830184610143565b92915050565b6000819050919050565b6101808161016d565b82525050565b600060208201905061019b6000830184610177565b9291505056fea2646970667358221220a59abb939653ed7350562b5adb6c5c223a4d4690e0d5a2a1bc07931b3fcc913364736f6c634300080d0033",
  "linkReferences": {},
  "deployedLinkReferences": {}
}