{
  "_format": "hh-sol-artifact-1",
  "contractName": "Todos",
  "sourceName": "contracts/Todo.sol",
  "abi": [
    {
      "inputs": [
        {
          "internalType": "uint256",
          "name": "",
          "type": "uint256"
        }
      ],
      "name": "todos",
      "outputs": [
        {
          "internalType": "string",
          "name": "text",
          "type": "string"
        },
        {
          "internalType": "bool",
          "name": "completed",
          "type": "bool"
        }
      ],
      "stateMutability": "view",
      "type": "function"
    }
  ],
  "bytecode": "0x608060405234801561001057600080fd5b5061030c806100206000396000f3fe608060405234801561001057600080fd5b506004361061002b5760003560e01c8063bc8bc2b414610030575b600080fd5b61004a60048036038101906100459190610165565b610061565b604051610058929190610246565b60405180910390f35b6000818154811061007157600080fd5b9060005260206000209060020201600091509050806000018054610094906102a5565b80601f01602080910402602001604051908101604052809291908181526020018280546100c0906102a5565b801561010d5780601f106100e25761010080835404028352916020019161010d565b820191906000526020600020905b8154815290600101906020018083116100f057829003601f168201915b5050505050908060010160009054906101000a900460ff16905082565b600080fd5b6000819050919050565b6101428161012f565b811461014d57600080fd5b50565b60008135905061015f81610139565b92915050565b60006020828403121561017b5761017a61012a565b5b600061018984828501610150565b91505092915050565b600081519050919050565b600082825260208201905092915050565b60005b838110156101cc5780820151818401526020810190506101b1565b838111156101db576000848401525b50505050565b6000601f19601f8301169050919050565b60006101fd82610192565b610207818561019d565b93506102178185602086016101ae565b610220816101e1565b840191505092915050565b60008115159050919050565b6102408161022b565b82525050565b6000604082019050818103600083015261026081856101f2565b905061026f6020830184610237565b9392505050565b7f4e487b7100000000000000000000000000000000000000000000000000000000600052602260045260246000fd5b600060028204905060018216806102bd57607f821691505b6020821081036102d0576102cf610276565b5b5091905056fea2646970667358221220ab68982f25cc311e2e6663cee70a60fc57ff0b4715d277d14e336357027de68564736f6c634300080d0033",
  "linkReferences": {},
  "deployedLinkReferences": {}
}