{
  "_format": "hh-sol-artifact-1",
  "contractName": "FunctionModifier",
  "sourceName": "contracts/FunctionModifier.sol",
  "abi": [
    {
      "inputs": [],
      "stateMutability": "nonpayable",
      "type": "constructor"
    },
    {
      "inputs": [
        {
          "internalType": "address",
          "name": "_newOwner",
          "type": "address"
        }
      ],
      "name": "changeOwner",
      "outputs": [],
      "stateMutability": "nonpayable",
      "type": "function"
    },
    {
      "inputs": [
        {
          "internalType": "uint256",
          "name": "i",
          "type": "uint256"
        }
      ],
      "name": "decrement",
      "outputs": [],
      "stateMutability": "nonpayable",
      "type": "function"
    },
    {
      "inputs": [],
      "name": "locked",
      "outputs": [
        {
          "internalType": "bool",
          "name": "",
          "type": "bool"
        }
      ],
      "stateMutability": "view",
      "type": "function"
    },
    {
      "inputs": [],
      "name": "owner",
      "outputs": [
        {
          "internalType": "address",
          "name": "",
          "type": "address"
        }
      ],
      "stateMutability": "view",
      "type": "function"
    },
    {
      "inputs": [],
      "name": "x",
      "outputs": [
        {
          "internalType": "uint256",
          "name": "",
          "type": "uint256"
        }
      ],
      "stateMutability": "view",
      "type": "function"
    }
  ],
  "bytecode": "0x6080604052600a60015534801561001557600080fd5b50336000806101000a81548173ffffffffffffffffffffffffffffffffffffffff021916908373ffffffffffffffffffffffffffffffffffffffff160217905550610699806100656000396000f3fe608060405234801561001057600080fd5b50600436106100575760003560e01c80630c55699c1461005c5780633a9ebefd1461007a5780638da5cb5b14610096578063a6f9dae1146100b4578063cf309012146100d0575b600080fd5b6100646100ee565b6040516100719190610347565b60405180910390f35b610094600480360381019061008f9190610393565b6100f4565b005b61009e6101b5565b6040516100ab9190610401565b60405180910390f35b6100ce60048036038101906100c99190610448565b6101d9565b005b6100d861031b565b6040516100e59190610490565b60405180910390f35b60015481565b600260009054906101000a900460ff1615610144576040517f08c379a000000000000000000000000000000000000000000000000000000000815260040161013b90610508565b60405180910390fd5b6001600260006101000a81548160ff02191690831515021790555080600160008282546101719190610557565b925050819055506001811115610197576101966001826101919190610557565b6100f4565b5b6000600260006101000a81548160ff02191690831515021790555050565b60008054906101000a900473ffffffffffffffffffffffffffffffffffffffff1681565b60008054906101000a900473ffffffffffffffffffffffffffffffffffffffff1673ffffffffffffffffffffffffffffffffffffffff163373ffffffffffffffffffffffffffffffffffffffff1614610267576040517f08c379a000000000000000000000000000000000000000000000000000000000815260040161025e906105d7565b60405180910390fd5b80600073ffffffffffffffffffffffffffffffffffffffff168173ffffffffffffffffffffffffffffffffffffffff16036102d7576040517f08c379a00000000000000000000000000000000000000000000000000000000081526004016102ce90610643565b60405180910390fd5b816000806101000a81548173ffffffffffffffffffffffffffffffffffffffff021916908373ffffffffffffffffffffffffffffffffffffffff1602179055505050565b600260009054906101000a900460ff1681565b6000819050919050565b6103418161032e565b82525050565b600060208201905061035c6000830184610338565b92915050565b600080fd5b6103708161032e565b811461037b57600080fd5b50565b60008135905061038d81610367565b92915050565b6000602082840312156103a9576103a8610362565b5b60006103b78482850161037e565b91505092915050565b600073ffffffffffffffffffffffffffffffffffffffff82169050919050565b60006103eb826103c0565b9050919050565b6103fb816103e0565b82525050565b600060208201905061041660008301846103f2565b92915050565b610425816103e0565b811461043057600080fd5b50565b6000813590506104428161041c565b92915050565b60006020828403121561045e5761045d610362565b5b600061046c84828501610433565b91505092915050565b60008115159050919050565b61048a81610475565b82525050565b60006020820190506104a56000830184610481565b92915050565b600082825260208201905092915050565b7f4e6f207265656e7472616e637900000000000000000000000000000000000000600082015250565b60006104f2600d836104ab565b91506104fd826104bc565b602082019050919050565b60006020820190508181036000830152610521816104e5565b9050919050565b7f4e487b7100000000000000000000000000000000000000000000000000000000600052601160045260246000fd5b60006105628261032e565b915061056d8361032e565b9250828210156105805761057f610528565b5b828203905092915050565b7f4e6f74206f776e65720000000000000000000000000000000000000000000000600082015250565b60006105c16009836104ab565b91506105cc8261058b565b602082019050919050565b600060208201905081810360008301526105f0816105b4565b9050919050565b7f4e6f742076616c69642061646472657373000000000000000000000000000000600082015250565b600061062d6011836104ab565b9150610638826105f7565b602082019050919050565b6000602082019050818103600083015261065c81610620565b905091905056fea26469706673582212209f7f47deceba4b492baef11c9180ede83f56d32c5bd4c134953ac195977c201c64736f6c634300080d0033",
  "linkReferences": {},
  "deployedLinkReferences": {}
}