{
  "_format": "hh-sol-artifact-1",
  "contractName": "TestArray",
  "sourceName": "contracts/Library.sol",
  "abi": [
    {
      "inputs": [
        {
          "internalType": "uint256",
          "name": "",
          "type": "uint256"
        }
      ],
      "name": "arr",
      "outputs": [
        {
          "internalType": "uint256",
          "name": "",
          "type": "uint256"
        }
      ],
      "stateMutability": "view",
      "type": "function"
    },
    {
      "inputs": [],
      "name": "testArrayRemove",
      "outputs": [],
      "stateMutability": "nonpayable",
      "type": "function"
    }
  ],
  "bytecode": "0x608060405234801561001057600080fd5b506103d8806100206000396000f3fe608060405234801561001057600080fd5b50600436106100365760003560e01c806325afcbfb1461003b57806371e5ee5f14610045575b600080fd5b610043610075565b005b61005f600480360381019061005a9190610201565b6101a2565b60405161006c919061023d565b60405180910390f35b60005b60038110156100bd57600081908060018154018082558091505060019003906000526020600020016000909190919091505580806100b590610287565b915050610078565b50600073__$a92d150d3821b32cc81f1b673f874f7681$__63677ca2d8909160016040518363ffffffff1660e01b81526004016100fb92919061031b565b60006040518083038186803b15801561011357600080fd5b505af4158015610127573d6000803e3d6000fd5b5050505060026000805490501461014157610140610344565b5b60008060008154811061015757610156610373565b5b9060005260206000200154146101705761016f610344565b5b6002600060018154811061018757610186610373565b5b9060005260206000200154146101a05761019f610344565b5b565b600081815481106101b257600080fd5b906000526020600020016000915090505481565b600080fd5b6000819050919050565b6101de816101cb565b81146101e957600080fd5b50565b6000813590506101fb816101d5565b92915050565b600060208284031215610217576102166101c6565b5b6000610225848285016101ec565b91505092915050565b610237816101cb565b82525050565b6000602082019050610252600083018461022e565b92915050565b7f4e487b7100000000000000000000000000000000000000000000000000000000600052601160045260246000fd5b6000610292826101cb565b91507fffffffffffffffffffffffffffffffffffffffffffffffffffffffffffffffff82036102c4576102c3610258565b5b600182019050919050565b8082525050565b6000819050919050565b6000819050919050565b60006103056103006102fb846102d6565b6102e0565b6101cb565b9050919050565b610315816102ea565b82525050565b600060408201905061033060008301856102cf565b61033d602083018461030c565b9392505050565b7f4e487b7100000000000000000000000000000000000000000000000000000000600052600160045260246000fd5b7f4e487b7100000000000000000000000000000000000000000000000000000000600052603260045260246000fdfea26469706673582212201ac56ed5b237169f7bad7d51c0e9f57fd8008fe11c00a43af2389d649399bdea64736f6c634300080d0033",
  "linkReferences": {
    "contracts/Library.sol": {
      "Array": [
        {
          "length": 20,
          "start": 226
        }
      ]
    }
  },
  "deployedLinkReferences": {
    "contracts/Library.sol": {
      "Array": [
        {
          "length": 20,
          "start": 194
        }
      ]
    }
  }
}