{
  "_format": "hh-sol-artifact-1",
  "contractName": "MostSignificantBitFunction",
  "sourceName": "contracts/MostSignificantBitFunction.sol",
  "abi": [
    {
      "inputs": [
        {
          "internalType": "uint256",
          "name": "x",
          "type": "uint256"
        }
      ],
      "name": "mostSignificantBit",
      "outputs": [
        {
          "internalType": "uint256",
          "name": "msb",
          "type": "uint256"
        }
      ],
      "stateMutability": "pure",
      "type": "function"
    }
  ],
  "bytecode": "0x608060405234801561001057600080fd5b506102c4806100206000396000f3fe608060405234801561001057600080fd5b506004361061002b5760003560e01c8063e6bcbc6514610030575b600080fd5b61004a600480360381019061004591906101b2565b610060565b60405161005791906101ee565b60405180910390f35b6000700100000000000000000000000000000000821061009157608082901c915060808161008e9190610238565b90505b6801000000000000000082106100b857604082901c91506040816100b59190610238565b90505b64010000000082106100db57602082901c91506020816100d89190610238565b90505b6201000082106100fc57601082901c91506010816100f99190610238565b90505b610100821061011c57600882901c91506008816101199190610238565b90505b6010821061013b57600482901c91506004816101389190610238565b90505b6004821061015a57600282901c91506002816101579190610238565b90505b600282106101725760018161016f9190610238565b90505b919050565b600080fd5b6000819050919050565b61018f8161017c565b811461019a57600080fd5b50565b6000813590506101ac81610186565b92915050565b6000602082840312156101c8576101c7610177565b5b60006101d68482850161019d565b91505092915050565b6101e88161017c565b82525050565b600060208201905061020360008301846101df565b92915050565b7f4e487b7100000000000000000000000000000000000000000000000000000000600052601160045260246000fd5b60006102438261017c565b915061024e8361017c565b9250827fffffffffffffffffffffffffffffffffffffffffffffffffffffffffffffffff0382111561028357610282610209565b5b82820190509291505056fea26469706673582212208921ed0ed84ef95d8f4834ff3aebda98f4699b96cfcb77dd81ac9de2e5f8d88764736f6c634300080d0033",
  "linkReferences": {},
  "deployedLinkReferences": {}
}