{
  "_format": "hh-sol-artifact-1",
  "contractName": "C",
  "sourceName": "contracts/Shadow.sol",
  "abi": [
    {
      "inputs": [],
      "stateMutability": "nonpayable",
      "type": "constructor"
    },
    {
      "inputs": [],
      "name": "getName",
      "outputs": [
        {
          "internalType": "string",
          "name": "",
          "type": "string"
        }
      ],
      "stateMutability": "view",
      "type": "function"
    },
    {
      "inputs": [],
      "name": "name",
      "outputs": [
        {
          "internalType": "string",
          "name": "",
          "type": "string"
        }
      ],
      "stateMutability": "view",
      "type": "function"
    }
  ],
  "bytecode": "0x60806040526040518060400160405280600a81526020017f436f6e74726163742041000000000000000000000000000000000000000000008152506000908051906020019061004f9291906100ae565b5034801561005c57600080fd5b506040518060400160405280600a81526020017f436f6e7472616374204300000000000000000000000000000000000000000000815250600090805190602001906100a89291906100ae565b506101b1565b8280546100ba90610180565b90600052602060002090601f0160209004810192826100dc5760008555610123565b82601f106100f557805160ff1916838001178555610123565b82800160010185558215610123579182015b82811115610122578251825591602001919060010190610107565b5b5090506101309190610134565b5090565b5b8082111561014d576000816000905550600101610135565b5090565b7f4e487b7100000000000000000000000000000000000000000000000000000000600052602260045260246000fd5b6000600282049050600182168061019857607f821691505b6020821081036101ab576101aa610151565b5b50919050565b6102e8806101c06000396000f3fe608060405234801561001057600080fd5b50600436106100365760003560e01c806306fdde031461003b57806317d7de7c14610059575b600080fd5b610043610077565b6040516100509190610230565b60405180910390f35b610061610105565b60405161006e9190610230565b60405180910390f35b6000805461008490610281565b80601f01602080910402602001604051908101604052809291908181526020018280546100b090610281565b80156100fd5780601f106100d2576101008083540402835291602001916100fd565b820191906000526020600020905b8154815290600101906020018083116100e057829003601f168201915b505050505081565b60606000805461011490610281565b80601f016020809104026020016040519081016040528092919081815260200182805461014090610281565b801561018d5780601f106101625761010080835404028352916020019161018d565b820191906000526020600020905b81548152906001019060200180831161017057829003601f168201915b5050505050905090565b600081519050919050565b600082825260208201905092915050565b60005b838110156101d15780820151818401526020810190506101b6565b838111156101e0576000848401525b50505050565b6000601f19601f8301169050919050565b600061020282610197565b61020c81856101a2565b935061021c8185602086016101b3565b610225816101e6565b840191505092915050565b6000602082019050818103600083015261024a81846101f7565b905092915050565b7f4e487b7100000000000000000000000000000000000000000000000000000000600052602260045260246000fd5b6000600282049050600182168061029957607f821691505b6020821081036102ac576102ab610252565b5b5091905056fea2646970667358221220b14973817115993796d1c4716f23968aa8a7c0971bfed49d88a9cae05ad3173964736f6c634300080d0033",
  "linkReferences": {},
  "deployedLinkReferences": {}
}