{
  "_format": "hh-sol-artifact-1",
  "contractName": "Ballot",
  "sourceName": "contracts/Ballot.sol",
  "abi": [
    {
      "inputs": [
        {
          "internalType": "address",
          "name": "to",
          "type": "address"
        }
      ],
      "name": "delegate",
      "outputs": [],
      "stateMutability": "nonpayable",
      "type": "function"
    },
    {
      "inputs": [
        {
          "internalType": "address",
          "name": "toVoter",
          "type": "address"
        }
      ],
      "name": "giveRightToVote",
      "outputs": [],
      "stateMutability": "nonpayable",
      "type": "function"
    },
    {
      "inputs": [
        {
          "internalType": "uint8",
          "name": "toProposal",
          "type": "uint8"
        }
      ],
      "name": "vote",
      "outputs": [],
      "stateMutability": "nonpayable",
      "type": "function"
    },
    {
      "inputs": [],
      "name": "winningProposal",
      "outputs": [
        {
          "internalType": "uint8",
          "name": "_winningProposal",
          "type": "uint8"
        }
      ],
      "stateMutability": "nonpayable",
      "type": "function"
    }
  ],
  "bytecode": "0x608060405234801561001057600080fd5b506108db806100206000396000f3fe608060405234801561001057600080fd5b506004361061004c5760003560e01c80635c19a95c14610051578063609ff1bd1461006d5780639e7b8d611461008b578063b3f98adc146100a7575b600080fd5b61006b60048036038101906100669190610701565b6100c3565b005b61007561042e565b604051610082919061074a565b60405180910390f35b6100a560048036038101906100a09190610701565b6104b7565b005b6100c160048036038101906100bc9190610791565b6105ad565b005b6000600160003373ffffffffffffffffffffffffffffffffffffffff1673ffffffffffffffffffffffffffffffffffffffff16815260200190815260200160002090508060010160009054906101000a900460ff1615610123575061042b565b5b600073ffffffffffffffffffffffffffffffffffffffff16600160008473ffffffffffffffffffffffffffffffffffffffff1673ffffffffffffffffffffffffffffffffffffffff16815260200190815260200160002060010160029054906101000a900473ffffffffffffffffffffffffffffffffffffffff1673ffffffffffffffffffffffffffffffffffffffff161415801561025157503373ffffffffffffffffffffffffffffffffffffffff16600160008473ffffffffffffffffffffffffffffffffffffffff1673ffffffffffffffffffffffffffffffffffffffff16815260200190815260200160002060010160029054906101000a900473ffffffffffffffffffffffffffffffffffffffff1673ffffffffffffffffffffffffffffffffffffffff1614155b156102c057600160008373ffffffffffffffffffffffffffffffffffffffff1673ffffffffffffffffffffffffffffffffffffffff16815260200190815260200160002060010160029054906101000a900473ffffffffffffffffffffffffffffffffffffffff169150610124565b3373ffffffffffffffffffffffffffffffffffffffff168273ffffffffffffffffffffffffffffffffffffffff16036102f9575061042b565b60018160010160006101000a81548160ff021916908315150217905550818160010160026101000a81548173ffffffffffffffffffffffffffffffffffffffff021916908373ffffffffffffffffffffffffffffffffffffffff1602179055506000600160008473ffffffffffffffffffffffffffffffffffffffff1673ffffffffffffffffffffffffffffffffffffffff16815260200190815260200160002090508060010160009054906101000a900460ff161561040857816000015460028260010160019054906101000a900460ff1660ff16815481106103e0576103df6107be565b5b9060005260206000200160000160008282546103fc9190610826565b92505081905550610428565b81600001548160000160008282546104209190610826565b925050819055505b50505b50565b6000806000905060005b6002805490508160ff1610156104b2578160028260ff16815481106104605761045f6107be565b5b9060005260206000200160000154111561049f5760028160ff168154811061048b5761048a6107be565b5b906000526020600020016000015491508092505b80806104aa9061087c565b915050610438565b505090565b60008054906101000a900473ffffffffffffffffffffffffffffffffffffffff1673ffffffffffffffffffffffffffffffffffffffff163373ffffffffffffffffffffffffffffffffffffffff1614158061055e5750600160008273ffffffffffffffffffffffffffffffffffffffff1673ffffffffffffffffffffffffffffffffffffffff16815260200190815260200160002060010160009054906101000a900460ff165b6105aa5760018060008373ffffffffffffffffffffffffffffffffffffffff1673ffffffffffffffffffffffffffffffffffffffff168152602001908152602001600020600001819055505b50565b6000600160003373ffffffffffffffffffffffffffffffffffffffff1673ffffffffffffffffffffffffffffffffffffffff16815260200190815260200160002090508060010160009054906101000a900460ff168061061557506002805490508260ff1610155b15610620575061069b565b60018160010160006101000a81548160ff021916908315150217905550818160010160016101000a81548160ff021916908360ff160217905550806000015460028360ff1681548110610676576106756107be565b5b9060005260206000200160000160008282546106929190610826565b92505081905550505b50565b600080fd5b600073ffffffffffffffffffffffffffffffffffffffff82169050919050565b60006106ce826106a3565b9050919050565b6106de816106c3565b81146106e957600080fd5b50565b6000813590506106fb816106d5565b92915050565b6000602082840312156107175761071661069e565b5b6000610725848285016106ec565b91505092915050565b600060ff82169050919050565b6107448161072e565b82525050565b600060208201905061075f600083018461073b565b92915050565b61076e8161072e565b811461077957600080fd5b50565b60008135905061078b81610765565b92915050565b6000602082840312156107a7576107a661069e565b5b60006107b58482850161077c565b91505092915050565b7f4e487b7100000000000000000000000000000000000000000000000000000000600052603260045260246000fd5b6000819050919050565b7f4e487b7100000000000000000000000000000000000000000000000000000000600052601160045260246000fd5b6000610831826107ed565b915061083c836107ed565b9250827fffffffffffffffffffffffffffffffffffffffffffffffffffffffffffffffff03821115610871576108706107f7565b5b828201905092915050565b60006108878261072e565b915060ff820361089a576108996107f7565b5b60018201905091905056fea2646970667358221220c37cf929a92a38ce666ad7301a824252951701a9b8746771324f7747c0fc288364736f6c634300080d0033",
  "linkReferences": {},
  "deployedLinkReferences": {}
}