{
  "_format": "hh-sol-artifact-1",
  "contractName": "Import",
  "sourceName": "contracts/Import.sol",
  "abi": [
    {
      "inputs": [],
      "name": "foo",
      "outputs": [
        {
          "internalType": "contract Foo",
          "name": "",
          "type": "address"
        }
      ],
      "stateMutability": "view",
      "type": "function"
    },
    {
      "inputs": [],
      "name": "getFooName",
      "outputs": [
        {
          "internalType": "string",
          "name": "",
          "type": "string"
        }
      ],
      "stateMutability": "view",
      "type": "function"
    }
  ],
  "bytecode": "0x60806040526040516100109061007e565b604051809103906000f08015801561002c573d6000803e3d6000fd5b506000806101000a81548173ffffffffffffffffffffffffffffffffffffffff021916908373ffffffffffffffffffffffffffffffffffffffff16021790555034801561007857600080fd5b5061008b565b6103a1806104de83390190565b6104448061009a6000396000f3fe608060405234801561001057600080fd5b50600436106100365760003560e01c8063c29855781461003b578063c626126114610059575b600080fd5b610043610077565b60405161005091906101b5565b60405180910390f35b61006161009b565b60405161006e9190610269565b60405180910390f35b60008054906101000a900473ffffffffffffffffffffffffffffffffffffffff1681565b606060008054906101000a900473ffffffffffffffffffffffffffffffffffffffff1673ffffffffffffffffffffffffffffffffffffffff166306fdde036040518163ffffffff1660e01b8152600401600060405180830381865afa158015610108573d6000803e3d6000fd5b505050506040513d6000823e3d601f19601f8201168201806040525081019061013191906103c5565b905090565b600073ffffffffffffffffffffffffffffffffffffffff82169050919050565b6000819050919050565b600061017b61017661017184610136565b610156565b610136565b9050919050565b600061018d82610160565b9050919050565b600061019f82610182565b9050919050565b6101af81610194565b82525050565b60006020820190506101ca60008301846101a6565b92915050565b600081519050919050565b600082825260208201905092915050565b60005b8381101561020a5780820151818401526020810190506101ef565b83811115610219576000848401525b50505050565b6000601f19601f8301169050919050565b600061023b826101d0565b61024581856101db565b93506102558185602086016101ec565b61025e8161021f565b840191505092915050565b600060208201905081810360008301526102838184610230565b905092915050565b6000604051905090565b600080fd5b600080fd5b600080fd5b600080fd5b7f4e487b7100000000000000000000000000000000000000000000000000000000600052604160045260246000fd5b6102e18261021f565b810181811067ffffffffffffffff82111715610300576102ff6102a9565b5b80604052505050565b600061031361028b565b905061031f82826102d8565b919050565b600067ffffffffffffffff82111561033f5761033e6102a9565b5b6103488261021f565b9050602081019050919050565b600061036861036384610324565b610309565b905082815260208101848484011115610384576103836102a4565b5b61038f8482856101ec565b509392505050565b600082601f8301126103ac576103ab61029f565b5b81516103bc848260208601610355565b91505092915050565b6000602082840312156103db576103da610295565b5b600082015167ffffffffffffffff8111156103f9576103f861029a565b5b61040584828501610397565b9150509291505056fea26469706673582212203fbf6ce85dd200cef2dc8d7d575995335c701b849050e15c32095622d817436f64736f6c634300080d003360806040526040518060400160405280600381526020017f466f6f00000000000000000000000000000000000000000000000000000000008152506000908051906020019061004f929190610062565b5034801561005c57600080fd5b50610165565b82805461006e90610134565b90600052602060002090601f01602090048101928261009057600085556100d7565b82601f106100a957805160ff19168380011785556100d7565b828001600101855582156100d7579182015b828111156100d65782518255916020019190600101906100bb565b5b5090506100e491906100e8565b5090565b5b808211156101015760008160009055506001016100e9565b5090565b7f4e487b7100000000000000000000000000000000000000000000000000000000600052602260045260246000fd5b6000600282049050600182168061014c57607f821691505b60208210810361015f5761015e610105565b5b50919050565b61022d806101746000396000f3fe608060405234801561001057600080fd5b506004361061002b5760003560e01c806306fdde0314610030575b600080fd5b61003861004e565b6040516100459190610175565b60405180910390f35b6000805461005b906101c6565b80601f0160208091040260200160405190810160405280929190818152602001828054610087906101c6565b80156100d45780601f106100a9576101008083540402835291602001916100d4565b820191906000526020600020905b8154815290600101906020018083116100b757829003601f168201915b505050505081565b600081519050919050565b600082825260208201905092915050565b60005b838110156101165780820151818401526020810190506100fb565b83811115610125576000848401525b50505050565b6000601f19601f8301169050919050565b6000610147826100dc565b61015181856100e7565b93506101618185602086016100f8565b61016a8161012b565b840191505092915050565b6000602082019050818103600083015261018f818461013c565b905092915050565b7f4e487b7100000000000000000000000000000000000000000000000000000000600052602260045260246000fd5b600060028204905060018216806101de57607f821691505b6020821081036101f1576101f0610197565b5b5091905056fea2646970667358221220355afaea5bce06769903e409d519b23a1ae929a7f436422c7edbbf96f5c726ee64736f6c634300080d0033",
  "linkReferences": {},
  "deployedLinkReferences": {}
}