{
  "_format": "hh-sol-artifact-1",
  "contractName": "B",
  "sourceName": "contracts/Constructor.sol",
  "abi": [
    {
      "inputs": [],
      "name": "name",
      "outputs": [
        {
          "internalType": "string",
          "name": "",
          "type": "string"
        }
      ],
      "stateMutability": "view",
      "type": "function"
    },
    {
      "inputs": [],
      "name": "text",
      "outputs": [
        {
          "internalType": "string",
          "name": "",
          "type": "string"
        }
      ],
      "stateMutability": "view",
      "type": "function"
    }
  ],
  "bytecode": "0x608060405234801561001057600080fd5b506040518060400160405280600a81526020017f496e70757420746f2059000000000000000000000000000000000000000000008152506040518060400160405280600a81526020017f496e70757420746f20580000000000000000000000000000000000000000000081525080600090805190602001906100939291906100b2565b505080600190805190602001906100ab9291906100b2565b50506101b5565b8280546100be90610184565b90600052602060002090601f0160209004810192826100e05760008555610127565b82601f106100f957805160ff1916838001178555610127565b82800160010185558215610127579182015b8281111561012657825182559160200191906001019061010b565b5b5090506101349190610138565b5090565b5b80821115610151576000816000905550600101610139565b5090565b7f4e487b7100000000000000000000000000000000000000000000000000000000600052602260045260246000fd5b6000600282049050600182168061019c57607f821691505b6020821081036101af576101ae610155565b5b50919050565b6102e4806101c46000396000f3fe608060405234801561001057600080fd5b50600436106100365760003560e01c806306fdde031461003b5780631f1bd69214610059575b600080fd5b610043610077565b604051610050919061022c565b60405180910390f35b610061610105565b60405161006e919061022c565b60405180910390f35b600080546100849061027d565b80601f01602080910402602001604051908101604052809291908181526020018280546100b09061027d565b80156100fd5780601f106100d2576101008083540402835291602001916100fd565b820191906000526020600020905b8154815290600101906020018083116100e057829003601f168201915b505050505081565b600180546101129061027d565b80601f016020809104026020016040519081016040528092919081815260200182805461013e9061027d565b801561018b5780601f106101605761010080835404028352916020019161018b565b820191906000526020600020905b81548152906001019060200180831161016e57829003601f168201915b505050505081565b600081519050919050565b600082825260208201905092915050565b60005b838110156101cd5780820151818401526020810190506101b2565b838111156101dc576000848401525b50505050565b6000601f19601f8301169050919050565b60006101fe82610193565b610208818561019e565b93506102188185602086016101af565b610221816101e2565b840191505092915050565b6000602082019050818103600083015261024681846101f3565b905092915050565b7f4e487b7100000000000000000000000000000000000000000000000000000000600052602260045260246000fd5b6000600282049050600182168061029557607f821691505b6020821081036102a8576102a761024e565b5b5091905056fea2646970667358221220d43644a7d31c0476d070d7a38a7198c46fe1c2812c544ef8dbcdb146b8595e3c64736f6c634300080d0033",
  "linkReferences": {},
  "deployedLinkReferences": {}
}