{
  "_format": "hh-sol-artifact-1",
  "contractName": "C",
  "sourceName": "contracts/Constructor.sol",
  "abi": [
    {
      "inputs": [
        {
          "internalType": "string",
          "name": "_name",
          "type": "string"
        },
        {
          "internalType": "string",
          "name": "_text",
          "type": "string"
        }
      ],
      "stateMutability": "nonpayable",
      "type": "constructor"
    },
    {
      "inputs": [],
      "name": "name",
      "outputs": [
        {
          "internalType": "string",
          "name": "",
          "type": "string"
        }
      ],
      "stateMutability": "view",
      "type": "function"
    },
    {
      "inputs": [],
      "name": "text",
      "outputs": [
        {
          "internalType": "string",
          "name": "",
          "type": "string"
        }
      ],
      "stateMutability": "view",
      "type": "function"
    }
  ],
  "bytecode": "0x608060405234801561001057600080fd5b506040516106573803806106578339818101604052810190610032919061028c565b8082806000908051906020019061004a92919061006b565b5050806001908051906020019061006292919061006b565b50505050610364565b82805461007790610333565b90600052602060002090601f01602090048101928261009957600085556100e0565b82601f106100b257805160ff19168380011785556100e0565b828001600101855582156100e0579182015b828111156100df5782518255916020019190600101906100c4565b5b5090506100ed91906100f1565b5090565b5b8082111561010a5760008160009055506001016100f2565b5090565b6000604051905090565b600080fd5b600080fd5b600080fd5b600080fd5b6000601f19601f8301169050919050565b7f4e487b7100000000000000000000000000000000000000000000000000000000600052604160045260246000fd5b6101758261012c565b810181811067ffffffffffffffff821117156101945761019361013d565b5b80604052505050565b60006101a761010e565b90506101b3828261016c565b919050565b600067ffffffffffffffff8211156101d3576101d261013d565b5b6101dc8261012c565b9050602081019050919050565b60005b838110156102075780820151818401526020810190506101ec565b83811115610216576000848401525b50505050565b600061022f61022a846101b8565b61019d565b90508281526020810184848401111561024b5761024a610127565b5b6102568482856101e9565b509392505050565b600082601f83011261027357610272610122565b5b815161028384826020860161021c565b91505092915050565b600080604083850312156102a3576102a2610118565b5b600083015167ffffffffffffffff8111156102c1576102c061011d565b5b6102cd8582860161025e565b925050602083015167ffffffffffffffff8111156102ee576102ed61011d565b5b6102fa8582860161025e565b9150509250929050565b7f4e487b7100000000000000000000000000000000000000000000000000000000600052602260045260246000fd5b6000600282049050600182168061034b57607f821691505b60208210810361035e5761035d610304565b5b50919050565b6102e4806103736000396000f3fe608060405234801561001057600080fd5b50600436106100365760003560e01c806306fdde031461003b5780631f1bd69214610059575b600080fd5b610043610077565b604051610050919061022c565b60405180910390f35b610061610105565b60405161006e919061022c565b60405180910390f35b600080546100849061027d565b80601f01602080910402602001604051908101604052809291908181526020018280546100b09061027d565b80156100fd5780601f106100d2576101008083540402835291602001916100fd565b820191906000526020600020905b8154815290600101906020018083116100e057829003601f168201915b505050505081565b600180546101129061027d565b80601f016020809104026020016040519081016040528092919081815260200182805461013e9061027d565b801561018b5780601f106101605761010080835404028352916020019161018b565b820191906000526020600020905b81548152906001019060200180831161016e57829003601f168201915b505050505081565b600081519050919050565b600082825260208201905092915050565b60005b838110156101cd5780820151818401526020810190506101b2565b838111156101dc576000848401525b50505050565b6000601f19601f8301169050919050565b60006101fe82610193565b610208818561019e565b93506102188185602086016101af565b610221816101e2565b840191505092915050565b6000602082019050818103600083015261024681846101f3565b905092915050565b7f4e487b7100000000000000000000000000000000000000000000000000000000600052602260045260246000fd5b6000600282049050600182168061029557607f821691505b6020821081036102a8576102a761024e565b5b5091905056fea26469706673582212204fe1c27ac3db1374279cd163739ef623ca33ba388103a2a0e884bdbee70d77b364736f6c634300080d0033",
  "linkReferences": {},
  "deployedLinkReferences": {}
}