{
  "_format": "hh-sol-artifact-1",
  "contractName": "UncheckedMath",
  "sourceName": "contracts/UncheckedMath.sol",
  "abi": [
    {
      "inputs": [
        {
          "internalType": "uint256",
          "name": "x",
          "type": "uint256"
        },
        {
          "internalType": "uint256",
          "name": "y",
          "type": "uint256"
        }
      ],
      "name": "add",
      "outputs": [
        {
          "internalType": "uint256",
          "name": "",
          "type": "uint256"
        }
      ],
      "stateMutability": "pure",
      "type": "function"
    },
    {
      "inputs": [
        {
          "internalType": "uint256",
          "name": "x",
          "type": "uint256"
        },
        {
          "internalType": "uint256",
          "name": "y",
          "type": "uint256"
        }
      ],
      "name": "sub",
      "outputs": [
        {
          "internalType": "uint256",
          "name": "",
          "type": "uint256"
        }
      ],
      "stateMutability": "pure",
      "type": "function"
    },
    {
      "inputs": [
        {
          "internalType": "uint256",
          "name": "x",
          "type": "uint256"
        },
        {
          "internalType": "uint256",
          "name": "y",
          "type": "uint256"
        }
      ],
      "name": "sumOfCubes",
      "outputs": [
        {
          "internalType": "uint256",
          "name": "",
          "type": "uint256"
        }
      ],
      "stateMutability": "pure",
      "type": "function"
    }
  ],
  "bytecode": "0x608060405234801561001057600080fd5b506101eb806100206000396000f3fe608060405234801561001057600080fd5b50600436106100415760003560e01c8063771602f714610046578063a2138e6714610076578063b67d77c5146100a6575b600080fd5b610060600480360381019061005b919061014b565b6100d6565b60405161006d919061019a565b60405180910390f35b610090600480360381019061008b919061014b565b6100e3565b60405161009d919061019a565b60405180910390f35b6100c060048036038101906100bb919061014b565b610103565b6040516100cd919061019a565b60405180910390f35b6000818301905092915050565b600080838485020290506000838485020290508082019250505092915050565b6000818303905092915050565b600080fd5b6000819050919050565b61012881610115565b811461013357600080fd5b50565b6000813590506101458161011f565b92915050565b6000806040838503121561016257610161610110565b5b600061017085828601610136565b925050602061018185828601610136565b9150509250929050565b61019481610115565b82525050565b60006020820190506101af600083018461018b565b9291505056fea2646970667358221220c39a9afbb756b646b5bcf6277222d5a8fc4eb09ed7d7d2b7547f2ed773a7c8de64736f6c634300080d0033",
  "linkReferences": {},
  "deployedLinkReferences": {}
}