{
  "_format": "hh-sol-artifact-1",
  "contractName": "ArrayRemoveByShifting",
  "sourceName": "contracts/ArrayRemoveByShifting.sol",
  "abi": [
    {
      "inputs": [
        {
          "internalType": "uint256",
          "name": "",
          "type": "uint256"
        }
      ],
      "name": "arr",
      "outputs": [
        {
          "internalType": "uint256",
          "name": "",
          "type": "uint256"
        }
      ],
      "stateMutability": "view",
      "type": "function"
    },
    {
      "inputs": [
        {
          "internalType": "uint256",
          "name": "_index",
          "type": "uint256"
        }
      ],
      "name": "remove",
      "outputs": [],
      "stateMutability": "nonpayable",
      "type": "function"
    },
    {
      "inputs": [],
      "name": "test",
      "outputs": [],
      "stateMutability": "nonpayable",
      "type": "function"
    }
  ],
  "bytecode": "0x608060405234801561001057600080fd5b506106b6806100206000396000f3fe608060405234801561001057600080fd5b50600436106100415760003560e01c80634cc822151461004657806371e5ee5f14610062578063f8a8fd6d14610092575b600080fd5b610060600480360381019061005b919061041e565b61009c565b005b61007c6004803603810190610077919061041e565b61018e565b604051610089919061045a565b60405180910390f35b61009a6101b2565b005b60008054905081106100e3576040517f08c379a00000000000000000000000000000000000000000000000000000000081526004016100da906104d2565b60405180910390fd5b60008190505b60016000805490506100fb9190610521565b8110156101625760006001826101119190610555565b81548110610122576101216105ab565b5b906000526020600020015460008281548110610141576101406105ab565b5b9060005260206000200181905550808061015a906105da565b9150506100e9565b50600080548061017557610174610622565b5b6001900381819060005260206000200160009055905550565b6000818154811061019e57600080fd5b906000526020600020016000915090505481565b6040518060a00160405280600160ff168152602001600260ff168152602001600360ff168152602001600460ff168152602001600560ff1681525060009060056101fd929190610322565b50610208600261009c565b60016000808154811061021e5761021d6105ab565b5b90600052602060002001541461023757610236610651565b5b6002600060018154811061024e5761024d6105ab565b5b90600052602060002001541461026757610266610651565b5b6004600060028154811061027e5761027d6105ab565b5b90600052602060002001541461029757610296610651565b5b600560006003815481106102ae576102ad6105ab565b5b9060005260206000200154146102c7576102c6610651565b5b6004600080549050146102dd576102dc610651565b5b6040518060200160405280600160ff168152506000906001610300929190610374565b5061030b600061009c565b60008080549050146103205761031f610651565b5b565b828054828255906000526020600020908101928215610363579160200282015b82811115610362578251829060ff16905591602001919060010190610342565b5b50905061037091906103c6565b5090565b8280548282559060005260206000209081019282156103b5579160200282015b828111156103b4578251829060ff16905591602001919060010190610394565b5b5090506103c291906103c6565b5090565b5b808211156103df5760008160009055506001016103c7565b5090565b600080fd5b6000819050919050565b6103fb816103e8565b811461040657600080fd5b50565b600081359050610418816103f2565b92915050565b600060208284031215610434576104336103e3565b5b600061044284828501610409565b91505092915050565b610454816103e8565b82525050565b600060208201905061046f600083018461044b565b92915050565b600082825260208201905092915050565b7f696e646578206f7574206f6620626f756e640000000000000000000000000000600082015250565b60006104bc601283610475565b91506104c782610486565b602082019050919050565b600060208201905081810360008301526104eb816104af565b9050919050565b7f4e487b7100000000000000000000000000000000000000000000000000000000600052601160045260246000fd5b600061052c826103e8565b9150610537836103e8565b92508282101561054a576105496104f2565b5b828203905092915050565b6000610560826103e8565b915061056b836103e8565b9250827fffffffffffffffffffffffffffffffffffffffffffffffffffffffffffffffff038211156105a05761059f6104f2565b5b828201905092915050565b7f4e487b7100000000000000000000000000000000000000000000000000000000600052603260045260246000fd5b60006105e5826103e8565b91507fffffffffffffffffffffffffffffffffffffffffffffffffffffffffffffffff8203610617576106166104f2565b5b600182019050919050565b7f4e487b7100000000000000000000000000000000000000000000000000000000600052603160045260246000fd5b7f4e487b7100000000000000000000000000000000000000000000000000000000600052600160045260246000fdfea26469706673582212207f85258b1dff005a335e70009938fd7a1621b5363bdfcdbb017c9f9d3eb05da964736f6c634300080d0033",
  "linkReferences": {},
  "deployedLinkReferences": {}
}