{
  "_format": "hh-sol-artifact-1",
  "contractName": "A",
  "sourceName": "contracts/Super.sol",
  "abi": [
    {
      "anonymous": false,
      "inputs": [
        {
          "indexed": false,
          "internalType": "string",
          "name": "message",
          "type": "string"
        }
      ],
      "name": "Log",
      "type": "event"
    },
    {
      "inputs": [],
      "name": "bar",
      "outputs": [],
      "stateMutability": "nonpayable",
      "type": "function"
    },
    {
      "inputs": [],
      "name": "foo",
      "outputs": [],
      "stateMutability": "nonpayable",
      "type": "function"
    }
  ],
  "bytecode": "0x608060405234801561001057600080fd5b506101dc806100206000396000f3fe608060405234801561001057600080fd5b50600436106100365760003560e01c8063c29855781461003b578063febb0f7e14610045575b600080fd5b61004361004f565b005b61004d610086565b005b7fcf34ef537ac33ee1ac626ca1587a0a7e8e51561e5514f8cb36afa1c5102b3bab60405161007c9061011a565b60405180910390a1565b7fcf34ef537ac33ee1ac626ca1587a0a7e8e51561e5514f8cb36afa1c5102b3bab6040516100b390610186565b60405180910390a1565b600082825260208201905092915050565b7f412e666f6f2063616c6c65640000000000000000000000000000000000000000600082015250565b6000610104600c836100bd565b915061010f826100ce565b602082019050919050565b60006020820190508181036000830152610133816100f7565b9050919050565b7f412e6261722063616c6c65640000000000000000000000000000000000000000600082015250565b6000610170600c836100bd565b915061017b8261013a565b602082019050919050565b6000602082019050818103600083015261019f81610163565b905091905056fea2646970667358221220d8458ef93259783ff49311b642b55d76569ac40eaa1103af255f36a5fff9442364736f6c634300080d0033",
  "linkReferences": {},
  "deployedLinkReferences": {}
}