{
  "_format": "hh-sol-artifact-1",
  "contractName": "ViewAndPure",
  "sourceName": "contracts/ViewAndPure.sol",
  "abi": [
    {
      "inputs": [
        {
          "internalType": "uint256",
          "name": "i",
          "type": "uint256"
        },
        {
          "internalType": "uint256",
          "name": "j",
          "type": "uint256"
        }
      ],
      "name": "add",
      "outputs": [
        {
          "internalType": "uint256",
          "name": "",
          "type": "uint256"
        }
      ],
      "stateMutability": "pure",
      "type": "function"
    },
    {
      "inputs": [
        {
          "internalType": "uint256",
          "name": "y",
          "type": "uint256"
        }
      ],
      "name": "addToX",
      "outputs": [
        {
          "internalType": "uint256",
          "name": "",
          "type": "uint256"
        }
      ],
      "stateMutability": "view",
      "type": "function"
    },
    {
      "inputs": [],
      "name": "x",
      "outputs": [
        {
          "internalType": "uint256",
          "name": "",
          "type": "uint256"
        }
      ],
      "stateMutability": "view",
      "type": "function"
    }
  ],
  "bytecode": "0x6080604052600160005534801561001557600080fd5b50610284806100256000396000f3fe608060405234801561001057600080fd5b50600436106100415760003560e01c80630c55699c146100465780635965da7714610064578063771602f714610094575b600080fd5b61004e6100c4565b60405161005b9190610110565b60405180910390f35b61007e6004803603810190610079919061015c565b6100ca565b60405161008b9190610110565b60405180910390f35b6100ae60048036038101906100a99190610189565b6100e1565b6040516100bb9190610110565b60405180910390f35b60005481565b6000816000546100da91906101f8565b9050919050565b600081836100ef91906101f8565b905092915050565b6000819050919050565b61010a816100f7565b82525050565b60006020820190506101256000830184610101565b92915050565b600080fd5b610139816100f7565b811461014457600080fd5b50565b60008135905061015681610130565b92915050565b6000602082840312156101725761017161012b565b5b600061018084828501610147565b91505092915050565b600080604083850312156101a05761019f61012b565b5b60006101ae85828601610147565b92505060206101bf85828601610147565b9150509250929050565b7f4e487b7100000000000000000000000000000000000000000000000000000000600052601160045260246000fd5b6000610203826100f7565b915061020e836100f7565b9250827fffffffffffffffffffffffffffffffffffffffffffffffffffffffffffffffff03821115610243576102426101c9565b5b82820190509291505056fea264697066735822122025a9b0e4f17b022c1aa25be89c90767b20115610787637c0bfb168e8d6852b4764736f6c634300080d0033",
  "linkReferences": {},
  "deployedLinkReferences": {}
}