{
  "_format": "hh-sol-artifact-1",
  "contractName": "GuessTheMagicWord",
  "sourceName": "contracts/Keccak256.sol",
  "abi": [
    {
      "inputs": [],
      "name": "answer",
      "outputs": [
        {
          "internalType": "bytes32",
          "name": "",
          "type": "bytes32"
        }
      ],
      "stateMutability": "view",
      "type": "function"
    },
    {
      "inputs": [
        {
          "internalType": "string",
          "name": "_word",
          "type": "string"
        }
      ],
      "name": "guess",
      "outputs": [
        {
          "internalType": "bool",
          "name": "",
          "type": "bool"
        }
      ],
      "stateMutability": "view",
      "type": "function"
    }
  ],
  "bytecode": "0x60806040527f60298f78cc0b47170ba79c10aa3851d7648bd96f2f8e46a19dbc777c36fb0c0060001b60005534801561003757600080fd5b50610396806100476000396000f3fe608060405234801561001057600080fd5b50600436106100365760003560e01c80634eee59b31461003b57806385bb7d691461006b575b600080fd5b6100556004803603810190610050919061021c565b610089565b6040516100629190610280565b60405180910390f35b6100736100bc565b60405161008091906102b4565b60405180910390f35b600080548260405160200161009e9190610349565b60405160208183030381529060405280519060200120149050919050565b60005481565b6000604051905090565b600080fd5b600080fd5b600080fd5b600080fd5b6000601f19601f8301169050919050565b7f4e487b7100000000000000000000000000000000000000000000000000000000600052604160045260246000fd5b610129826100e0565b810181811067ffffffffffffffff82111715610148576101476100f1565b5b80604052505050565b600061015b6100c2565b90506101678282610120565b919050565b600067ffffffffffffffff821115610187576101866100f1565b5b610190826100e0565b9050602081019050919050565b82818337600083830152505050565b60006101bf6101ba8461016c565b610151565b9050828152602081018484840111156101db576101da6100db565b5b6101e684828561019d565b509392505050565b600082601f830112610203576102026100d6565b5b81356102138482602086016101ac565b91505092915050565b600060208284031215610232576102316100cc565b5b600082013567ffffffffffffffff8111156102505761024f6100d1565b5b61025c848285016101ee565b91505092915050565b60008115159050919050565b61027a81610265565b82525050565b60006020820190506102956000830184610271565b92915050565b6000819050919050565b6102ae8161029b565b82525050565b60006020820190506102c960008301846102a5565b92915050565b600081519050919050565b600081905092915050565b60005b838110156103035780820151818401526020810190506102e8565b83811115610312576000848401525b50505050565b6000610323826102cf565b61032d81856102da565b935061033d8185602086016102e5565b80840191505092915050565b60006103558284610318565b91508190509291505056fea2646970667358221220e17f31cfe8e8b315cb17b77bcf67203b6ea8a1e0268fca4d663d46c6c3bd099c64736f6c634300080d0033",
  "linkReferences": {},
  "deployedLinkReferences": {}
}