{
  "_format": "hh-sol-artifact-1",
  "contractName": "HashFunction",
  "sourceName": "contracts/Keccak256.sol",
  "abi": [
    {
      "inputs": [
        {
          "internalType": "string",
          "name": "_text",
          "type": "string"
        },
        {
          "internalType": "string",
          "name": "_anotherText",
          "type": "string"
        }
      ],
      "name": "collision",
      "outputs": [
        {
          "internalType": "bytes32",
          "name": "",
          "type": "bytes32"
        }
      ],
      "stateMutability": "pure",
      "type": "function"
    },
    {
      "inputs": [
        {
          "internalType": "string",
          "name": "_text",
          "type": "string"
        },
        {
          "internalType": "uint256",
          "name": "_num",
          "type": "uint256"
        },
        {
          "internalType": "address",
          "name": "_addr",
          "type": "address"
        }
      ],
      "name": "hash",
      "outputs": [
        {
          "internalType": "bytes32",
          "name": "",
          "type": "bytes32"
        }
      ],
      "stateMutability": "pure",
      "type": "function"
    }
  ],
  "bytecode": "0x608060405234801561001057600080fd5b50610583806100206000396000f3fe608060405234801561001057600080fd5b50600436106100365760003560e01c80635dda416e1461003b5780637b7fb9821461006b575b600080fd5b610055600480360381019061005091906102f2565b61009b565b604051610062919061037a565b60405180910390f35b61008560048036038101906100809190610395565b6100d1565b604051610092919061037a565b60405180910390f35b60008383836040516020016100b2939291906104f0565b6040516020818303038152906040528051906020012090509392505050565b600082826040516020016100e6929190610529565b60405160208183030381529060405280519060200120905092915050565b6000604051905090565b600080fd5b600080fd5b600080fd5b600080fd5b6000601f19601f8301169050919050565b7f4e487b7100000000000000000000000000000000000000000000000000000000600052604160045260246000fd5b61016b82610122565b810181811067ffffffffffffffff8211171561018a57610189610133565b5b80604052505050565b600061019d610104565b90506101a98282610162565b919050565b600067ffffffffffffffff8211156101c9576101c8610133565b5b6101d282610122565b9050602081019050919050565b82818337600083830152505050565b60006102016101fc846101ae565b610193565b90508281526020810184848401111561021d5761021c61011d565b5b6102288482856101df565b509392505050565b600082601f83011261024557610244610118565b5b81356102558482602086016101ee565b91505092915050565b6000819050919050565b6102718161025e565b811461027c57600080fd5b50565b60008135905061028e81610268565b92915050565b600073ffffffffffffffffffffffffffffffffffffffff82169050919050565b60006102bf82610294565b9050919050565b6102cf816102b4565b81146102da57600080fd5b50565b6000813590506102ec816102c6565b92915050565b60008060006060848603121561030b5761030a61010e565b5b600084013567ffffffffffffffff81111561032957610328610113565b5b61033586828701610230565b93505060206103468682870161027f565b9250506040610357868287016102dd565b9150509250925092565b6000819050919050565b61037481610361565b82525050565b600060208201905061038f600083018461036b565b92915050565b600080604083850312156103ac576103ab61010e565b5b600083013567ffffffffffffffff8111156103ca576103c9610113565b5b6103d685828601610230565b925050602083013567ffffffffffffffff8111156103f7576103f6610113565b5b61040385828601610230565b9150509250929050565b600081519050919050565b600081905092915050565b60005b83811015610441578082015181840152602081019050610426565b83811115610450576000848401525b50505050565b60006104618261040d565b61046b8185610418565b935061047b818560208601610423565b80840191505092915050565b6000819050919050565b6104a261049d8261025e565b610487565b82525050565b60008160601b9050919050565b60006104c0826104a8565b9050919050565b60006104d2826104b5565b9050919050565b6104ea6104e5826102b4565b6104c7565b82525050565b60006104fc8286610456565b91506105088285610491565b60208201915061051882846104d9565b601482019150819050949350505050565b60006105358285610456565b91506105418284610456565b9150819050939250505056fea26469706673582212209870baf2cde70acc6e3c5b4edf822dba9518d292a8b92fc00775f887ca4ec89b64736f6c634300080d0033",
  "linkReferences": {},
  "deployedLinkReferences": {}
}